:0200000400807A
:2000000042583234008012001C14000019821200000004000000070008003B603511012953
:20002000B0B56946427800AF9206920FD31DDB08DB00CB1A9D4605006946007801F08EF9F0
:20004000072101206B786C461B071B0FDA100B409840A25CBD461040431E9841C0B2B0BDFF
:20006000F8B56A46447800AFA406A40FE31DDB08DB00D31A9D460500220000216846D9F608
:200080004EFD07226B786E461B071B0FD9101340063A9A40287872546946220001F069F929
:2000A000BD46F8BD10B5064C064B9C4200D310BD626820680021D9F632FD0834F4E7C04614
:2000C000049412000C94120070B5050007480E00140000F0F3F8012032002900404200F060
:2000E00011F9001B43425841C0B270BDB71DC1048021F0B53F4B404C1B6985B02200180036
:200100004900009301F084F83C4B3D4D22682B603C4B9A424CD13C4B3C482B60009B6268F5
:20012000A1681818FFF7D0FF00285ED08022384B52012B60374B00211868D9F6F0FCA3687F
:2001400000261C0B1A050133120DFF3302921A05511E8A411B0BD3180393A3B201932E4AB9
:20016000F51C009B2D03AF180133019AFF33FF1896421FD3D51C1403E418214E274B2D03E5
:2001800001212800336001F0CFF820000024214F02993A6801F03CF83A680299280001F05E
:2001A00086F81F4B3360039B9C4216D11D4B336005B0F0BD0121280001F0B6F88021154C19
:2001C00049012268380001F023F8802122684901280001F06CF80136C1E7009B2003C018A0
:2001E000012101F0A1F80134DDE780239B012B60DEE7C046F07F1200149812000110000075
:200200000C94120078563412021000000001800003100000C093120000D0FFFF041000002B
:200220000510000006100000B0B500AF72B680221D4B1201DA67202000F014FAFFF732FF94
:2002400000F056FA00F0D0F900F0FAF900F024FF164C20001A3000F031FD00F049FD00F09F
:2002600077F83F22E37E9343802B09D120001C30FFF7D6FE002803D120001E30FFF7F0FE6E
:2002800000F06CF8FFF734FF094B1B6883F3088821002000074B18311C681030064B0022F1
:2002A000A047BD46B0BDC04604E100E0F07F12000030800004308000993300001F23002108
:2002C0000122F0B5104202D014009C4021434008013BF7D2802400220126094D64001300D7
:2002E00008201F005B08374000D04B4001380028F7D1900001322B50A242F0D1F0BDC046C3
:200300001094120030B5FF25074C8A18914201D1C04330BD0B78013143402B409B001B59E2
:20032000000A5840F2E7C046109412000722064B9A6080221204DA60044A1A6105225A6076
:20034000BFF34F8F7047C04690ED00E02D00021010B5002000F0E0F910BD000010B500F084
:20036000F9F90022014B5A6010BDC04690ED00E010B5FFF7DBFF00F007FA10BD10B54020BB
:20038000002900D0802000F03DF910BD10B5202000F060F910BD0000002905D14022094B01
:2003A0001860094B1A607047012903D14022074BDA67F8E70229F6D1C023034A5B003E3182
:2003C000D150F0E71098120000E100E004E100E010B50200032908D8080000F0CFFF020743
:2003E0000C100021074800F071FE10BD0021054800F06FFEF9E70122034B1A70F5E7024B76
:200400000022FAE78899120080991200704710B58020002903D1C00000F0F4F810BD0001F8
:20042000FAE7802010B5800100F014F910BD000010B5052A11D8100000F0A0FF0310131673
:200440001E210F220F4919200B6A93431A00032313430B620C2100F043F910BD0D211A20BF
:20046000F9E70D211B20F6E70F23064A1C20116A0B4313620D21EEE705211D20EBE71C21E5
:200480001820E8E7002013204020704710B5012404480A00036C2240A34319001143016422
:2004A00010BDC0460020132010B58020002903D1400000F0A7F810BD8000FAE700DF704721
:2004C00001DF704702DF704703DF704704DF7047F8B50D0016001F000400FFF749FF3B004E
:2004E00032002900200000F032FE0400FFF736FF2000F8BD10B5EFF31084002C02D0FFF72E
:20050000E7FF10BDFFF7DAFFFBE770B50D0016000400FFF72DFF32002900200000F02BFE75
:200520000400FFF71BFF200070BD10B5EFF31083002B02D0FFF7E9FF10BDFFF7C1FFFBE7E0
:20054000F8B50D0016001F000400FFF711FF3B0032002900200000F033FE0400FFF7FEFED5
:200560002000F8BD10B5EFF31084002C02D0FFF7E7FF10BDFFF7A6FFFBE770B50D001600FF
:200580000400FFF7F5FE32002900200000F013FE0400FFF7E3FE200070BD10B5EFF3108390
:2005A000002B02D0FFF7E9FF10BDFFF78DFFFBE770B50D0016000400FFF7DAFE32002900BA
:2005C000200000F001FE0400FFF7C8FE200070BD10B5EFF31083002B02D0FFF7E9FF10BD1D
:2005E000FFF774FFFBE70000034B044A13615361034A136153617047AAAAAAAA00201320C5
:200600000090142010B5EFF3108272B6094B0A495861084206D059690142FCD1002A00D168
:2006200062B610BD05490842F8D0040059698C43FBD1F3E700201320AAAAAAAA55555555EB
:200640000022034B5A62C02252011A627047C04600201320024B9861400898617047C04669
:2006600000201320024B9861400898617047C0460090142030B5EFF3108472B6164BCA076A
:200680001DD51A6802431A605A688D071AD502435A609A684D0717D502439A60DA680D070C
:2006A00014D50243DA601A69C90611D5104318611A680A4B5A65002C00D162B630BD1A68B4
:2006C0008243E0E78243E3E78243E6E78243E9E782431A61ECE7C046C49312000010202006
:2006E0000123834010B51800FFF7C4FF10BD00000022034B1A660332DA655A657047C046D0
:20070000001020200122034B9A61DA61DA69002AFCD17047001012200B4B70B51B680500AC
:200720000121002098470021084B094C1B6808009847FFF7E7FF656000F02CFB9C235B058E
:20074000A060E36070BDC046BC931200B89312000010122070B5202000F00AFB051E0DD1C8
:20076000074B084E1B6801009847F46800F00AFBFF239C432043FE3BF0603360280070BD48
:20078000B89312000010122010B500F00BFB041E05D1044B01211860034B1B68984720004E
:2007A00010BDC04600101220B893120070B588B0040002A803610F4B8260838200238375FC
:2007C0006B4622000E00DD1D60322900C26000F06BFC2661287800F071FC0423A26A1A42F7
:2007E000FCD00122A36A1340FCD1A360236108B070BDC0464092FFFF70B50400204D6B6832
:20080000984700212000EB68984701230022617A20002E69B0473F22237A9343802B0BD15C
:20082000617B7F3B3B3A20002E69B047217B0123032220002E69B04701232E69A17A1A007C
:200840002000B0472E69E17A200001230222B0472E69A17B200001230522B0470026236969
:2008600020009E60A28801215A61A279F0331A60EB6898476B69310020009847300070BD08
:20088000A0931200F0B5040085B0019102920393FFF7FAFD230014330700180000932569E2
:2008A00000F01BFC03000220002B24D0134E00212000F36898470221200073699847104BB8
:2008C000043F2B6000232F650127EB640233029AEB640199039B2800AF60FFF767FF03210D
:2008E000200073699847F368390020009847009800F001FC002005B0F0BDC046A093120038
:2009000000010700F0B5060085B00C0002920393FFF7BAFD3300143318000193356900F058
:20092000DCFB03000220002B28D0184F00213000FB6898477B69022130009847144B2B609E
:200940000123AB60002303999AB2914218D804232C61AA6A1A42FCD00123AC6A1C40FCD147
:20096000AC60032130007B692C619847FB68012130009847019800F0BEFB200005B0F0BD6F
:20098000029AD25C01332A66DDE7C046A093120000010700F0B5050085B002910392009318
:2009A000FFF772FD2B00143307001800019300F094FB03000220002B33D01B4E0021280029
:2009C000F3682C6998470221280073699847174B043F2360002327650127E3640233E36480
:2009E000039BA7602366009B02991A0CFF231A402266009A2000120A1A402266009A1340C4
:200A000023660A9A0B9BFFF7D1FE0321280073699847F368390028009847019800F06BFBAD
:200A2000002005B0F0BDC046A093120000010700F0B58FB0049314AB150004CB07001B8819
:200A4000039102930300143318000193059200F044FB03000220002B3DD0224E002138008B
:200A6000F3683C69984773690221380098471E4B2360029B013B6360072363650023E3649D
:200A80000133E364A360049BEB189D4225D12300002508A860338360059B8575C360029B99
:200AA0000361124B838206ABD91D00F0FDFA039B236106ABD87900F001FBA5600321380071
:200AC000736925619847F368012138009847019800F011FB28000FB0F0BD2A7801352266B8
:200AE000D3E7C046A09312000003070080A4FFFFF0B51F00030014338DB0050018000291CA
:200B00000392019300F0E9FA0226002859D03E4C3100636928009847E3680021280098475F
:200B2000297A2C698B068A074ED11B0F083BDBB2F022DB02D2011340882289079200890FC9
:200B4000114322000B43F43213602B7A2F4A9B095B05134323607B1E636000260123E6644D
:200B6000A360EB7928002366129B2366FFF78CFC874234D907236365063BE364230006A888
:200B8000EC338360039B8675C360214B0761838204ABDE1D310000F087FA029B30782361A9
:200BA00000F08CFA0026A6602661174C01212800E36898472800636903219847019800F0B5
:200BC0009AFA30000DB0F0BD180F0E003F239E43031FDBB2802EABD10238C3B2A8E7029BBB
:200BE00023610423A26A1A42FCD00122A36A1340FCD12200EC32BB42D4D21068039E990031
:200C000001338851DBB2F6E7A093120000021F0092A4FFFF70B5050014300E00140000F043
:200C20005CFA022300281FD0104B0021DB682800984786202B7A2A6999069B07090F9B0F7B
:200C40008000C90203430B431100F4310B602B7A07499B095B050B4313600123A408013C4D
:200C60005460166193600023180070BDA093120000021F00006960307047C07970470000E8
:200C800070B5060014360500300000F041FA032400280ED001222B699C6A1440FCD19C6078
:200CA0001C61054B2800DB6801219847300000F022FA200070BDC046A093120002220123DF
:200CC00010B50A4C0100E01DA371A280D8F60CFF192363720133A3720133E372013323733F
:200CE00001336373053BA37310BDC046D893120010B50248FFF780FD10BDC046D893120072
:200D000010B502000B0002480121FFF7BBFD10BDD893120010B502000B0002480121FFF769
:200D2000F1FD10BDD893120007B5019300920B00020001210148FFF72DFE0EBDD8931200B8
:200D400007B5019300920B00020001210148FFF76FFE0EBDD893120007B50B000092012113
:200D600002000248FFF7C4FE0EBDC046D893120010B5020001210248FFF74CFF10BDC046DA
:200D8000D893120010B50248FFF777FF10BDC046D893120010B50248FFF76CFF10BDC046C8
:200DA000D893120010B50248FFF76AFF10BDC046D89312000C234B43426830B59D5858233C
:200DC0004B43C4680648E318DA69854202D91043D86130BD120B12032A43DA61F9E7C046F2
:200DE000FF0F000070B50400EFF3108672B6437A002B12D1BA22C36892009A58002A0CD1BF
:200E0000C22292009B58002B07D1064D0121EB6898476B69032120009847002E00D162B6B1
:200E200070BDC04688931200EFF3108372B601228A40110002788A430270002B00D162B6EA
:200E40007047000070B504000126174D6B689847EB682000002198472B682000022198474D
:200E60002B68200000219847E6233100E2689B00D650237AFC2099400B00013BDBB21902F9
:200E8000800101403F2003400B43CC21890053502039535020006B6900219847EB68310013
:200EA00020009847002070BD88931200F0B506000D000024012085B00392337AA34202D886
:200EC000052005B0F0BD0300A34002936B461B7AEFF3108172B6777A3A001A407DD13B43DE
:200EE0007372002905D162B6002A02D00134E4B2E3E7FF2CE4D00C2363437268384FD31865
:200F00002A6800215A606A6830009A602A691A60FB6898477B6902213000984721003000B2
:200F2000FFF748FF7023697D0B40202B4DD0102B4FD0002B01D100930193AA8A0B07D205AD
:200F4000520F5B0FF068DB02AE7D92031A432B7DF60932435E079B06760E5B0F32435B0094
:200F60001343C0220904920311400B435821019A614352021343009A0026D2011343421853
:200F80009361AB7D16645B061B0FDF026B695B031B0FDB013B4302273B435364AB680B50CD
:200FA000EB6802999360FC22029B92011B0213403F220A401343E822920083500398B04295
:200FC00000D17EE7047030007BE7002300930233B2E7022300930023AEE7002986D182E7F8
:200FE00088931200F0B5037A050085B00E0001208B4246D90700EB688F400093E823009AEC
:201000009B00D2587B427B411A423CD158237343009AD3189A69024237D10C2272430192AE
:20102000FC223902920111403F223A40114302910393B022009B92009B581F42F9D0CE230E
:20104000009A9B00D750039B019ADC696B6824059B181A68240D141B1C6009D03100280077
:20106000FFF7A8FEE823009A02999B00D150E0E7280031000930FFF7D7FE2800FFF7B2FEE6
:20108000200005B0F0BD0320FBE70420F9E7000000487047FF0F000010B50248FFF7D2FEE3
:2010A00010BDC046F093120010B50A0001000248FFF7FCFE10BDC046F093120010B5010090
:2010C0000148FFF78FFF10BDF093120089000A507047002389000B5070470200EFF3108114
:2010E00072B603780020834201D101301070002900D162B67047EFF3108272B60378002BDA
:2011000001D000210170002A00D162B6180070470078704707B56B46D81D0623012103703B
:20112000FFF7EEFD0EBD73B56B46DD1D052301242B706B469E1D3200230021002800FFF748
:20114000FFFD3378234201D00028F2D076BDF8B504000D0017001E00FFF7DCFF002809D1CF
:201160003B00320029002000FFF7DEFD002801D1FFF7D9FFF8BD7FB56B46DD1D0C0016006A
:201180002870FFF7C7FF002809D1002E09D001212800FFF7B5FD002801D1FFF7C4FF04B099
:2011A00070BD2B7803A80370230C4370230A8370C4700421EDE710B51202FFF7CDFD10BDAC
:2011C00010B5FFF7BDFD10BDF7B56B4600AF06000D0014007B60FFF79DFF002814D12300FD
:2011E0006A460833DB08DB00D31A9D4629001E70581C2200D8F678FC611C6846FFF78AFD3F
:20120000002801D1FFF78FFF7B689D46BD46FEBDF0B5032587B006000F001400154017D063
:201220000200012105A8FFF7B8F9002803D00025280007B0F0BD04235D1BBD4200D93D00D6
:2012400020002A0005A9D8F64FFC641976197F1BFFF71EFFBB0803900193019B002B10D132
:2012600003331F40019DE3D03200012105A8FFF794F9051EDBD13A0005A92000D8F634FC2F
:20128000D6E7039B019A0293934200D902926B46320019892000FFF780F9051EC8D1029B14
:2012A000029A9B00F618E418019B9B1AD4E7F7B5FF23050007000C0000929D43A84212D0BD
:2012C0002D1A6E1CFF368E4200D90E00009B320039000220FFF70EF900281AD1009BBD19A8
:2012E0009B190093A41B80272E00230A9BB21B025B1901937F00009B019A5B1B9B199642BD
:2013000008D10020E2B2824203D031000230FFF7F1F8FEBD3A0031000220FFF7EBF800281E
:20132000F7D10136FF36E6E710B50400042907D8080000F023F803030A0D10000022202332
:2013400021001800FFF7F1F810BD00225223F7E70022D823F4E701226023F1E707B50300FE
:2013600068460730037093B20A000121FFF7FAF80EBD10B5FFF72CF910BD000002B47146D7
:2013800049084900095C49008E4402BC7047C046F8B5C046F8B5C046898312007D83120022
:2013A000000000006D83120000000000C1831200000000001384120000000000FF83120098
:2013C00021841200FD831200998412007D841200000012000300000003000000000000006A
:2013E0000000000000000000E987120000000000000000000000000000003020000000001B
:1E140000358E1200149912000600000000001220000000000C94120008040000136CC5
:20300000586610006DB18000E56D8000A51E1000000000000000000000000000000000009F
:20302000000000000000000000000000E56D80000000000000000000E56D8000E56D80001A
:20304000E56D80006536100015211000E56D8000E56D8000196E8000096E8000E56D800039
:20306000E56D8000E56D8000E56D8000E56D8000E56D8000E56D8000E56D8000E56D8000C0
:20308000E56D8000E56D8000E56D8000040000003D9D8000859B8000A99A8000759A80006A
:2030A000A59B8000659F8000599E80008D9E8000D19D8000FD9E8000319F80009D888000AC
:2030C000E9878000D18780000B20100035201000F51F10001F201000A9A88000E8A11200A9
:2030E000143A1000223A1000451F1000ED391000000000000000000000000000000000005C
:203100000000000000000000000000000000000000000000000000000000000000000000AF
:2031200000000000000000000000000000000000000000000000000000000000000000008F
:2031400000000000000000000000000000000000000000000000000000000000000000006F
:2031600000000000000000000000000000000000000000000000000000000000000000004F
:204EA00000000000FEE7000003490A6B52005208C00702430A6370470000102070B50F4CC0
:204EC000A08808F3CBF50546E08808F3C7F586B2208908F3C3F581B26805B20210430843FF
:204EE0000749C863A0882189884200D80846E288904200D8104608F3B9F570BDF0461000EF
:204F00000000102010B50D4AD3680D4C23605063FF200F3090610420D060D0680006C00FCB
:204F200005D080209061D06880239843D060002902D10120FFF7B8FF10BD0000000010205E
:204F4000F0461000F8B5164C002020606060A060022568460570224608326946062007F3E1
:204F6000A3F5002801D00F48208168460570A21D6946052007F398F50B4E002800D0E680B4
:204F800068460570221D6946042007F38DF5002800D0A680FFF792FF0020FFF785FFF8BD6C
:204FA000F04610007102000088130000012801D172B6FEE77047000010B50C48C168090A89
:204FC00009027631C1600A4C2078002805D10CF717FF002801D001F002FB2078022801D17E
:204FE00008F3ACF401F0D8FA10BD0000001013209C3A1000EFF3108172B6214B5A8902432E
:205000005A81002900D162B6704710B50120FFF7F1FF00F03BF81B490220087010BDEFF350
:20502000108172B6164B5A8982435A81002900D162B6704710B514490420086001F068FA09
:2050400001F06AFA0E48807AC00707D000F029F803200CF71DFF0120FFF7E1FF10BD10B531
:20506000074B020259688918C200121889184A0A5402091B59601E214843801810BD000035
:20508000D8A112009C3A10004010202010B50020FFF70AFF00F00AF8194901208861C860A5
:2050A00010BD184816490068C860704770B5144DA86BFFF7D4FF144CA17A46181349304610
:2050C000FFF69EFC114927224143711A1201511A0904090C0ED00022A272094A4032506066
:2050E00011600B4908200860286B082188430843286370BD11460122A272401CEDE7000013
:2051000000001020F046100088F81200710200004010202010B50E48046918F77FFF200748
:2051200002D5802000F009F8E00502D5802000F004F808490420086010BD054980310A68A4
:20514000FF231B049A43000402430A60704700000000102080E200E010B5002909D0012964
:205160000DD09C4802290FD0032901D10021017010BD02460021984808F3F6F010BD0021EF
:20518000954808F3F4F010BD0121F0E710B50C224A43436858249A58C068904B614308182D
:2051A0009A4202D9C169194305E0C3691105090D1A0B12031143C16110BD70B50446EFF3A7
:2051C000108572B6407A002813D10521E068C9014118896E00290CD103210902401880684F
:2051E000002806D1802000F014FE03212046FFF7B3FF002D00D162B670BDF7B50D46017A1F
:2052000082B0064600248C4616E00121A140CAB2EFF3108772B6437A134201D1012100E01E
:205220000021002901D013434372002F00D162B6002904D1641CE4B2A445E6D8FF24FF2C27
:2052400023D020460C23584372682968031DD150014673686A6808315A50726829691150DB
:20526000402000F0D6FD02213046FFF775FF21463046FFF78BFF68694204510F02290BD02E
:20528000012905D0510F07D009E0052005B0F0BD00210191022101E00191002100918204E7
:2052A000C305920F5B0F12059B031A4303055B0FDB021A43019BF1689B075B0D1A43009B66
:2052C0009B07DB0D1A4343075B0E1A4383065B0F5B001A430002C00F582302436343581885
:2052E0008261002202646A6956025203360F120FF602D2011643B61C4664AA68CA50EA683F
:2053000082600120A04082068006920E800C02430720C001081802620498002800D00470B7
:205320000020B3E7FEB50746C568007A0E46B04201D80120FEBD0720C00128180290016AEC
:205340000124B44004D00020014203D00320FEBD0120F9E758207043401901908069C00786
:2053600001D00420FEBD0520C001281800900098006C2042FBD003200002281884630C221C
:205380007968019872438B58C0690005000D181A88503146384609D0FFF7F8FEA006800EC8
:2053A000A106890C084302990862E0E700F005F83846FFF702FF0020FEBD01228A40EFF38E
:2053C000108172B6437A93434372002900D162B670470000B44810009C481000FF0F0000F5
:2053E0000A4610B501460548FFF707FF10BD10B501460248FFF796FF10BD0000403A100003
:20540000EFF3108272B6C0684160002A00D162B67047C06840687047C06800687047EFF3AD
:20542000108272B6C0680160002A00D162B67047704710B5F9481300FFF6A9FB06040C0FD1
:2054400012191C20016A09090901C91C01620C21192011E00D211A200EE00D211B200BE015
:20546000016A0F22114301620D211C2004E005211D2001E01C21182001F029FA10BD70B5CC
:2054800088B004466030049006980E46C008FF21C000F93188430721490240308843FF30FA
:2054A000FF30C9000230884301210392090340180F22D203C90090430843110188430121F0
:2054C000C9058843069005930025694601A8FFF787FF266168460078FFF789FFA06A400790
:2054E000FCD5A06AC007FCD1A560256108B070BD70B504460120400301F002F8012080026C
:2055000000F087FC617A012300222046FFF791FF207A800902280BD1617B01230422204656
:20552000FFF787FF217B012303222046FFF781FF0123A17A1A462046FFF77BFFE17A01233A
:2055400002222046FFF775FF002505266019817B012332462046FFF76CFF6D1C761CEDB275
:20556000F6B2002DF2D02169002088602169A08848612069A179803001670120C00200F019
:2055800048FC002070BD10B5143000F06CFF002801D0022010BD0120C00200F03AFC002005
:2055A00010BDFFB5046981B014301E4617464025009000F03BFF002815D0280100F029FC5D
:2055C0002946204600F018FB33463A4620460299FFF755FF680100F01CFC009800F034FF83
:2055E000002005B0F0BD0220FBE7FFB5046989B0143017460E46079000F018FF00284FD0F1
:205600000120800200F005FC8549F4200151854820603C2020650025E5640220E064266139
:205620000120A0602046603004900C9805900698FF21C008C000F931884307214902403068
:205640008843FF30FF30C900023088430121090340180F22D203C90090430843110188430B
:205660000121C905884306900397694601A8FFF7B7FE266168460078FFF7B9FEA06A400791
:20568000FCD5A06AC007FCD1A56025610120C00200F0BFFB079800F0D7FE00200DB0F0BD95
:2056A0000220FBE7FFB5046989B014300E46079000F0BCFE002854D00127BF02384600F010
:2056C000A8FB57490F31F4200151574820603C2020650025E5640220E06426610120A06065
:2056E0000B9820660C98206612980390204660300490139838218008059006980F22C008D8
:20570000C000801C8843C90010308843C90080308843C019C9008843B9004018D203C9002E
:205720009043084311018843790388430690694601A8FFF755FE266168460078FFF757FEF8
:20574000A06A4007FCD5A06AC007FCD1A56025610120C00200F05DFB079800F075FE0020B1
:205760009CE702209AE7F8B5046914301D4616460F46009000F05AFE002809D00120800215
:2057800000F047FB294820600120A060002005E00220F8BD315C2166401C80B2A842F9D391
:2057A0002761A06A4007FCD5A06AC007FCD1A06020610120C00200F02CFB009800F044FE5C
:2057C0000020F8BDFFB5044681B014301D4617464026009000F02AFE002829D024693001D4
:2057E00000F017FB3146204600F006FA27662802000E20662804000E2066E8B22066204649
:205800000B9B0A9A0299FFF73AFE700100F001FB009800F019FE0020E3E60000002013203D
:205820000A0200000001470000015F00000107000220D6E6FFB5044681B014301D4617469B
:205840004026009000F0F2FD002820D02469300100F0DFFA3146204600F0CEF92766280E7D
:2058600020662802000E20662804000E2066E8B2206620460B9B0A9A0299FFF700FE700154
:2058800000F0C7FA009800F0DFFD0020A9E60220A7E6FFB589B0044614301E461746139DA9
:2058A000079000F0C3FD002811D001202469800200F0AFFAD6482060681E606007206065FF
:2058C0000020E0640121E164A160014605E00220E4E67A5C2266491CC9B2B142F9D3214680
:2058E00060310391129904910699FF22C908C900F932914307225202803191430122920231
:205900008918072212039143012252030F238918DB03059592009943054611431801814327
:20592000100281430691694601A8FFF759FD0A98206168460078FFF75AFDA5602561012014
:20594000C00200F066FA079800F07EFD0020A5E6FFB5074689B014301D461646079000F0BC
:2059600065FD00285AD00120800200F052FA387A3C69810754D08109022955D08106090F18
:20598000091F09074A0C8007800F0243112040010243214680314A67387A9E4A8009400536
:2059A00080182060681E60600020E0640120A060FA792266129A2266402D39D90721616568
:2059C000E0642046EC30039006980F2288433821801C8843C90010308843C90080308843FC
:2059E000012189024018072109038843012149034018D2038900904308431F21C904884389
:205A0000069004960595694601A8FFF7E9FC0A98206168460078FFF7EAFC19E002203DE626
:205A20008106090F0839ACE78106090F891EA8E70A982061A06A4007FCD5A06AC007FCD13B
:205A400004E0CA6E8300401CF250C0B2A842F8D30020A06020610120C00200F0DAF90798FC
:205A600000F0F2FC002019E6FFB5074689B014301D461646079000F0D9FC002859D001201E
:205A8000800200F0C6F9387A3C698106090FCA028007800F024311204001024321468031E9
:205AA0004A67387A5B4A8009400580182060681E60600020E0640122A260F8793B283AD04B
:205AC0006B283AD00C20206612982066402D36D907206065E2642046EC300390069838218D
:205AE000C008C000801C8843C90010308843C900803088430121890240180721090388439B
:205B00000121490340180F22D2038900904308431F21C9048843069004960595694601A818
:205B2000FFF75EFC0A98206168460078FFF75FFC15E00220B2E53C20C5E76C20C3E70A98ED
:205B40002061A06A4007FCD5A06AC007FCD104E0CA6E8300401CF250C0B2A842F8D3002080
:205B6000A06020610120C00200F053F9079800F06BFC002092E570B5044615460E46143096
:205B800000F054FC00281ED00120800200F041F9207A23698106090F8007C902800F0143F8
:205BA0004320C0000143F420C150207A19498009400540181860A808401E58601E61012059
:205BC0009860002070BD022070BD006960307047C079704710B5016904468A6AD007FCD180
:205BE000886008610120C00200F013F92046143000F02AFC002010BD074A0260091F016587
:205C00000021C1640221C16401218160704700000003070000021F0000010700414902225B
:205C20008A8001228A710A460378D37140781072192048721A2088721B20C8721C200873A0
:205C40001D20487318208873704710B53548FFF74FFC10BD10B50B46024601213148FFF723
:205C6000A0FC10BD10B50B46024601212D48FFF7BCFC10BD1CB5019300920B460246012199
:205C80002848FFF70FFD1CBD10B50B46024601212448FFF768FD10BD1CB5019300920B465D
:205CA000024601211F48FFF78DFD1CBD1CB5019300920B46024601211A48FFF7BBFD1CBD1F
:205CC0001CB5019300920B46024601211548FFF7E0FD1CBD08B500920B46024601211148A6
:205CE000FFF736FE08BD08B500920B46024601210C48FFF7B9FE08BD10B502460121094865
:205D0000FFF739FF10BD10B50648FFF761FF10BD10B50448FFF759FF10BD10B50148FFF722
:205D200059FF10BD703A1000184900204861704710B500F07BF915490020486110BD10B5C1
:205D4000002000F05CF910BD1048072181610121C905C1610E49016205214161BFF34F8F8B
:205D6000704710B5FFF7F0FF00F079F910BD10B5FFF7F7FF0748FFF751FFFFF766FF0020D2
:205D800000F03DF9FFF7D4FF10BD000080ED00E02D000210BEDA120010B5EFF3108272B6B0
:205DA00028492948016141614369102423434361264803681C24A3431B1D03604368192491
:205DC0001B091B01A4012343436003680124234303601F4801614161002A00D162B610BD31
:205DE00010B5EFF3108472B61A494860154A104203D04A680242FCD107E0124AD243104244
:205E000003D04A6803469343FBD1002C00D162B610BD10B5EFF3108472B60B494861094A7D
:205E2000104203D04A690242FCD107E0054AD243104203D04A6903469343FBD1002C00D16E
:205E400062B610BDAAAAAAAA002013200010132000901420001020201CB50446052069461C
:205E6000087101236A46194601A8FFF729FF69460978C90702D00028F3D01CBD0028FCD124
:205E8000002CFAD06946097821701CBDF8B51C4615460E46074600F096F8002809D12B4676
:205EA000224631463846FFF7F7FE002801D1FFF7D3FFF8BDF8B51C4615460E46074600F028
:205EC00082F8002809D12B46224631463846FFF7EDFE002801D1FFF7BFFFF8BD37B582B016
:205EE00015460C4600F06FF8002814D1002D02D0012102A809E06946087A0870200C487050
:205F0000200A8870CC7004216846FFF7A3FE002801D1FFF7A1FF05B030BD37B582B015460E
:205F20000C4600F050F80028F5D1002D02D0012102A80BE06946087A0870200E4870200C78
:205F40008870200AC8700C7105216846FFF782FE0028E0D1FFF780FFDDE710B51202FFF73F
:205F6000B9FE10BD10B5FFF7BEFE10BD10B5FFF7A7FE10BD10B5FFF76DFE10BD10B5FFF77E
:205F800083FE10BDF7B51546074600F01CF8040012D1681C06F3FAF1077006462A46401C7D
:205FA0000199FEF699FD691C3046FFF7E7FF040004D0304605F38EF52046FEBD0020FFF7E6
:205FC0004BFF0446F5E708B506206946087001216846FFF73FFE08BD274A00239361106186
:205FE00051610120D061D0690028FCD17047224801218161C161C1690029FCD1704770B52C
:206000001E4905460868012240084000104308604815FFF7FEFEFFF7EAFF174C6560FFF7AC
:2060200077FEA0602720C005E06070BD70B52020FFF762FE040010D1FF200130FFF7E9FEA5
:206040000D4DEE68FFF75FFE310A09020843E86001202860FF21491EFDD2204670BD10B50D
:20606000FFF75BFE040005D10349086001204002FFF7CFFE204610BD001012204020132015
:20608000FFB50120C00581B01C4615460F46834221D3FF260136B54200D82E4600206A49F8
:2060A00003E022780A54401C641CB042F9D372B6FFF757FE644B324639460198FFF7E6FEDF
:2060C0000090FFF735FE62B60098002811D1BF19AD1BDED10CE072B6FFF743FE23462A46DA
:2060E00039460198FFF7D2FE0090FFF721FE62B6009805B0F0BDFFB50120C00581B01C46DE
:2061000015460F46834221D3FF260136B54200D82E4600204C4903E022780A54401C641C0B
:20612000B042F9D372B6FFF71CFE474B324639460198FFF7BFFE0090FFF7FAFD62B6009867
:206140000028D6D1BF19AD1BDED10CE072B6FFF708FE23462A4639460198FFF7ABFE0090F1
:20616000FFF7E6FD62B60098C3E770B514460D46064672B6FFF7F5FD224629463046FFF77B
:20618000ADFE0446FFF7D4FD62B6204670BD70B514460D46064672B6FFF7E3FD22462946A5
:2061A0003046FFF7BAFE0446FFF7C2FD62B6204670BDF8B51C4615460E46074672B6FFF7E8
:2061C000D0FD23462A4631463846FFF7CFFE0446FFF7AEFD62B62046F8BD70B514460D4671
:2061E000064672B6FFF7BDFD224629463046FFF7B4FE0446FFF79CFD62B6204670BD70B5DD
:2062000014460D46064672B6FFF7ABFD224629463046FFF7A7FE0446FFF78AFD62B6204692
:2062200070BD70B514460D46064672B6FFF799FD224629463046FFF7A5FE0446FFF778FDC4
:2062400062B6204670BD000054471000F7B50026940782B015460F46A40F16D00121684630
:20626000029AFFF7BAFF060035D10420001BB84200D93846C4B2224669462846FEF62CFC20
:2062800002982D1900193F1B029005F3EBF1BC08019014E00198844200D8204680B200909D
:2062A00001462846029AFFF798FF060014D10098029980004118451900980291241A002C16
:2062C000E8D1BC07A40F0ED001216846029AFFF784FF060002D0002005B0F0BD224669465B
:2062E0002846FEF6F9FB3046F6E7F7B50026940782B015460F46A40F16D06A4601210298A1
:2063000005F38FF3060035D10420001BB84200D93846C4B2224669462846FEF6DDFB029806
:206320002D1900193F1B029005F39CF1BC08019014E00198844200D8204680B2014600909E
:206340002A46029805F36DF30600C5D10098029980004118451900980291241A002CE8D187
:20636000BC07A40F0DD06A460121029805F359F3060001D00020AFE7224669462846FEF614
:20638000ABFB3046A8E730B41B4C4318A34201D830BC5BE730BCA8E708B5AB206946087096
:2063A00001216846FFF7EAFD08BD08B5B9206946087001216846FFF7E1FD08BD38B53A20FE
:2063C00069460870FFF7CDFC01216846FFF7D6FD0446FFF7ADFC204638BD38B5042069463A
:2063E0000870FFF7BEFC01216846FFF7C7FD0446FFF79EFC204638BDFFFFFF0010B50146AD
:206400000948FFF70CF810BD10B50748FFF704F810BD10B50448FEF7FCFF10BD10B50146B7
:206420000148FEF7EDFF10BD883A100002460020EFF3108172B61378002B01D10120107067
:20644000002900D162B6704702460020EFF3108172B61378012B02D10020107001200029FC
:2064600000D162B670470078704700000349002048620320C00208627047000000201320DE
:2064800070B51E4C256B0126B605DB07B5435B0A1D432563236B7500D207AB43120A134398
:2064A0002363226B03231B0789079A4389080A432263216B8900890880070143216370BD8F
:2064C00000231A4619461846DAE770B50B4D296B01229204C4079143E40FA20411432963D9
:2064E000012803D1FF20E13000F086FA286B01214904884361040843286370BD401020203A
:20650000024988614008886170470000002013205D490320486370475B48016860221143FF
:206520000160704758480168602291430160704770B5564D2878022807D0002811D0012435
:2065400006F3E2F3002822D113E007F301F204468007F5D50020287007F3C0F507F3A4F5DD
:20656000EEE70BF7FEFE002801D00324E8E70024E6E704F383F5002809D104F3A3F5002840
:2065800005D00020002804D0FB20204070BD0120F8E70420204370BD10B50020C04304F3CF
:2065A00037F3002810D104F31BF200280CD1EFF3108472B6FFF7BCFF072806D0C00700D0B4
:2065C00030BF002C00D162B610BD07F344F400F0E2F830BF00F0EAF807F33CF4F1E710B566
:2065E00001208002FFF7FCFB29490A6B1020824302430A63254800E030BF01780229FBD1D1
:2066000010BD10B52048C26910218A430A43C261C26909028A430A43C26100F0B6F810BD09
:2066200010B501201B494004086006F351F30921194806F373F30621184806F36FF310BD8E
:2066400010B504460A3000F034F806F3F4F620460B3000F02EF80C48C169012212049143B0
:20666000C16110BD10B501208002FFF7B9FB05F3E7F6FFF757FF054901200870084904209C
:2066800008600449086010BD001020209C3A10000000102000E100E0784810009C48100025
:2066A00080E200E0401A002801DD012070470020704700B5654A034611681846FFF7F2FF1E
:2066C0000028F9D100BD70B5FFF79BFF604C0546E06910218843E0611A205E49C04308608D
:2066E000FFF716FFFFF718FFFFF73BFBFFF75DFE00F0BAF85649FF22C03101320028C86827
:2067000001D0104300E09043C860012000F087F820680126C008C000304320600020FFF7AA
:20672000D4FE681CFFF7C5FFE069310488430843E061E06949008843E061A0683043A0605B
:2067400045480169042211430161FFF75DFE434C434DA1688843216908432860FFF759FE78
:20676000A1688843E168084368602868FFF746FE6868FFF753FEFFF779FE354960684031E4
:206780004861022000F04BF870BD30490A6808688242FCD0704796E710B5FFF756FAFFF7AE
:2067A000FBFDFFF7CCFAFFF7C3FA10BD70B52C4C2068FFF723FE6068FFF730FE27482449A1
:2067C000006840314861FFF751FE214CA0680425A843A060FFF7E0FAFFF7DEFFFFF770FE62
:2067E000E069E90388430843E061FFF7CEFF0446FFF726FF00F076F820460C30FFF759FF97
:2068000007F32EF4FFF70CFF13480169A94301610F48C030C168AA011143C16070BD10B5C6
:20682000104C012809D0022806D1A06B0028FCD00120C002FFF7D4FA10BD01208002FFF7ED
:20684000CFFA206B0004C00FFBD010BD000020200010202080E100E000ED00E0A03A1000F1
:20686000D04810000000102024480078704730B5EFF3108472B6CD07214A136801D00343D1
:2068800000E0834313601E4B8D075B6801D5034300E0834353601A4B4D079B6801D50343D2
:2068A00000E083439360164B0D07DB6801D5034300E08343D360CB061149096901D50143DB
:2068C00000E081431161002C00D162B630BD024601209040CBE70B48002101620321C16198
:2068E0004161704707484038C169102291431143C161C16912029143C1617047D8481000B7
:20690000A03A10004010202010B5014604467F3108781739012815D1887EC00612D4002046
:206920000BF728FD02280DD108480069407A002808D107490868FF22120490430122520471
:206940001043086003492046884710BD6CF7120080001020E962010070B504466834054667
:2069600061792835124B0026012904D0022906D0032907D10DE00022EE87032101E00022AF
:2069800004219847A07EF7210840A0766671AE8670BD00220521F4E710B504460846FFF7B1
:2069A000DBFF002C01D0034810BD0248E43010BD755F0100716F010010B50968814202D23A
:2069C0000B20002110BD0249FEF61AF810BD0000710200003146FFF7DFFF0047EFF3088110
:2069E000FFF7EAFF004A10477776010000B57346FEF7DCFA00BD0000401E0028FCD1704729
:206A00000160EFF3098343608260C460056146618761704705010A0114010A010F0B050101
:206A20000A01000301020300E84210008100000000000000283A1000000000000100010013
:206A4000CD738000044710000600000000001220000000002D75800000401320000000004E
:206A600000000000000000000000000000000000F1241000000000000000000000000000F1
:206A800000003020000000009D74800000000000000000000080142000000000020000005F
:206AA0000300000000000000000000000000000000000000104910008052100010009700E1
:206AC00097000000AB087A0857082508FE07DC07C00762072907290729072907BD06850638
:206AE0006D0660062506F505D905AD058B05660548051905F404D404AF0484046D044504DD
:206B00001904FD03DD03BF0395037603520333030A03EF02C402A6028C02650247022A0244
:206B20000802E201C601A601850169014A012E011801F100CB00B0009100710056002E0085
:206B400020000000D0976500EC3F650060EA6400A89364006842640004F763008CA663006B
:206B60003C2E6300F8CC6200249C6200506B62007C3A62005CBA61002C5E6100341A6100BA
:206B80009CDF60004C806000882B60009CE55F00F8935F00A0465F0058075F00B0BE5E0042
:206BA00024695E00681B5E00B0DD5D004C925D00A8405D00CC085D001CB95C0014675C0066
:206BC0007C2C5C0070E35B00ACA75B00A4555B00E0195B0018CE5A00988F5A004C405A0006
:206BE00044075A0004B65900787959003841590018F3580028B658002C7B5800C82F5800DA
:206C000054EF570058B4570030785700302D5700FCF25600A8B55600D87B56003443560057
:206C2000B404560068B55500FC7B5500384055004803550078C954001C855400847C5400BD
:206C4000BC17540000020406080A0C0E10121416191B1D1F212326282A2C2E313335373AF9
:206C60003C3E414345484A4C4F515356585B5D606265676A6C6F717476797B7E81838689E7
:206C80008B8E91930000000033302D2A2724211E1B1815000000000000000000000000002B
:206CA0000000000002041900E9FFEEFF0000FBFF050000002D00370001000608426C7565E6
:206CC000580609426C756558080942582D53444B33080842582D53444B3300000000000094
:206CE000000000000448854600F06AF80048004775938000C046C04658661000214602F0E1
:206D0000EFFA0446004800474186010000B5044604F01CF800BD000002F0B0FA1CBDFFB5FC
:206D200085B006460698144602AD022846D3002C44D0002003902846803806990027491EA2
:206D4000FF430191009023E06043801961438A1901461046089A9047002804DCB8002958F2
:206D6000C919295014E068682246604381190098C06F6043801908E00B789C4603780B7009
:206D800063460370401C491C521E002AF4D17F4200986968C06F8842D6DC22463046089B61
:206DA000FFF7BDFF00980699C06F2246091A401C60438019491E089BFFF7B1FF09B0F0BD82
:206DC000064C0125064E05E0E36807CC2B430C3C98471034B442F7D3FFF788FF84B6800014
:206DE000F4B68000FEE70000002201214B00C35A491C9A180429F9D990088100511A022913
:206E000000D3401C80B2704710B50248006800F015FB10BD0047100010B50248006800F058
:206E2000B3FB10BD4C471000C106C90E01208840014908607047000080E200E0C106C90E64
:206E400001208840014908607047000000E100E08307FF22DB0E9A408907090E9940002809
:206E60000BDA0007000F0838830808489B001818C36993430B43C3617047830804489B0094
:206E80001818036893430B430360704700ED00E000E400E07CB515461C4607A20CCA019387
:206EA00000926A469070D1702B46224605216846FCF47FF17CBD00004B00000000000000BE
:206EC00002E008C8121F08C1002AFAD170477047002001E001C1121F002AFBD1704770474B
:206EE000704700880988884201D9012070470020C043704770477047704710B500F0F6FBA1
:206F000000F0BEFA03F00CFC10BD000010B5002909D001290DD00A4802290FD0032901D1D9
:206F20000021017110BD02460421064803F01CFA10BD0421034803F01AFA10BD0121F0E723
:206F4000B44810009C48100070B58EB028221D496846FAF7C1DD01206946887108208880E8
:206F60000020C871684600F08BF8174E00240AAD684600F033F861006852B04201D1641E2D
:206F8000E4B2641CE4B2062CF2D3684600F05EF90E4B022206210AA8FFF7C1FE0AA8FFF7A6
:206FA00023FF0B490B4B0968FA384A009A5A0A4B8900D218074B4243803359580EB0881AC1
:206FC00070BD0000E0B48000FFFF0000E36E800020541000C43A1000AB29000000B58BB04B
:206FE000002269460A85014628226846FAF774DD06490548C8600AAA0321684600F070F80E
:207000006946088D0BB000BD802D020080102020F1B58EB00025282217496846FAF75CDDAA
:20702000012069468871082088800020C871684600F026F873201149C001C86000240AAF8F
:207040006600F21968460E9900F04AF8002802D0641EE4B201E0B85B4519641CE4B2082C8A
:20706000EED3684600F0F2F8E817400F40194003000C0FB0F0BD0000B8B4800080102020A9
:20708000F8B5164E05467168046A884701230022376911462846B8473268022128469047D2
:2070A000B268002128469047F26800212846904703F098FBA988204600F044F8A8790028FE
:2070C000206802D00121084301E040084000206072690021284690470020F8BD78B480003E
:2070E000F7B50546046A82B01C3017460090FCF49DF1002822D0124E022172692846904785
:20710000E168039807224007400C120391430843E060E06802210843E060E0688007FCD4C6
:2071200072690321284690470098FCF48DF1E0688001800D3880002005B0F0BD0220FBE771
:2071400078B4800010B504460E4848430E49FAF76DDC0E4980B2884201D9084602E000287D
:2071600000D10120A1680A4B8205920919400A43A260A1688005800D890A89020843A06071
:2071800010BD00000024F40040420F00FF030000FFFF00FCF0B599B0282224496846FAF739
:2071A0009BDC012069468871082088800025CD716846FFF765FF1E4F002415AE69460D855F
:2071C00028220BA8FAF788DC1A48C7600AAA03210BA8FFF785FF6846008D61007052164912
:2071E000884201D1641EE4B2641CE4B2062CE5D3684600F02BF8114B0222062115A8FFF7C0
:207200008EFD15A8FFF7F0FD0E4A0D491268895CEB2292008A1842430B482D21090110189D
:20722000FAF704DC00B219B0F0BD000008B58000803D010080102020FFFF0000E36E8000BB
:20724000443C1000205410001A29F9FF70B50B4E0446F268056A0121904732680121204633
:207260009047286840084000286003F0BBFA7269012120469047002070BD000078B48000BC
:20728000F0B585B002A9684601F0F4FB03AA01A9684601F0D5FB684600785E280AD0EF2878
:2072A0000CD085280AD0682808D00B2806D0202812D01DE068460079322806D001221D4BF1
:2072C0000021104601F0EEFB12E00021194B01220846FFF7DFFD0BE0FCF470F0154A0121E7
:2072E0001548FCF450F0FCF478F0002800D0FEE7104E3078C0430006000E01D0306815E051
:2073000000250E4F0124E0B2FFF782FEB84201D2012000E00020611E88402843641CE4B208
:20732000C5B2062CEFD30648405D306003F023F805B0F0BD2054100000F0FF00A3020000DF
:20734000843C100010B5074C0020E178012907D08800054908588047E078401CE0700120A9
:2073600010BD00002855100008B6800010B52A210648FAF7CADB0649042008F48FF0002172
:20738000042008F425F000F077F910BD285510000CB6800010B50A2304220821084807F430
:2073A00053F71B210170002141701422428004228280C180034A028107F47EF710BD000096
:2073C0001B0D0000FF0100007047000010B504462020FCF495F04020FBF41BF5012210492F
:2073E000402008600F490C600F4908600720E168C00108188261207A8240521E9006800E1D
:20740000020210430322120289180863086100212046FAF4A1F68020FBF4FBF4002010BDF0
:2074200080E200E00047100000E100E010B50248FFF7CCFF10BD0000403A1000F8B50646D2
:20744000C0680321090247180521C901451810E000240BE0A96E0120A040014204D0B863E0
:207460002146304601F002F9641CE4B2307AA042F0D8A86E0028EBD13046FAF49EF6F8BD32
:207480000021044A08464300D35A5918401CFAD088B27047285410000020704770B5054664
:2074A0000120000300F0DCF901200A49C0030860094908606C6804E02146284602F0B0FD5E
:2074C0002468002CF8D10021284602F0EBFD002070BD000080E200E000E100E070B5054602
:2074E00014460E461830FBF4A1F7002809D00FCC08350FC528463146183801F0AAFD002035
:2075000070BD022070BD00001FB50269C16801920091416902918169039101466A46024867
:20752000FFF7DCFF04B010BD543A100010B504460120C005FBF4E4F701208004FBF469F4AB
:2075400001210A4A20201060094A1460094A10606068002242600161C804FBF45AF4002163
:20756000204601F0C9FD002010BD000080E200E04C47100000E100E010B50248FFF7D6FF81
:2075800010BD0000543A1000F8B5044661680120C86107216068C901254641180835202279
:2075A00027696669A068FAF797DA1D2160684901411820226868FAF78FDA0120C004FBF419
:2075C00028F40321204601F097FD20461830FBF43BF73046B847F8BD00B585B000200190EC
:2075E00002900948039009A0049001A800F01AFB0A49002308600A4900911A46194600F0B9
:20760000ADF905B000BD00004DB1800075736572207365727669636500000000245510007B
:20762000881300007047000000B595B000216A46517007201072A020D08090800D201070F6
:20764000012050720920D07208AA10726A4691720246084903A8FAF73FDA06490AA809227B
:2076600009390130FAF738DA684600F0E5F815B000BD0000D13C100010B5FFF7A5FE10BD4F
:2076800000B595B000216A46517007201072A020D08090800D201070012050720920D0729A
:2076A00008AA10726A4691720246084903A8FAF713DA06490AA8092209390130FAF70CDA4B
:2076C000684600F0B9F815B000BD0000D13C100010B5202003F0B6FB0420FBF481F3032069
:2076E000FFF7A2FB0320FFF7A9FB10BD10B5FFF72BFC7D21C900FAF783D90149088010BD38
:2077000028541000032101700A2141700121C176FB214184014981847047000048080000DC
:2077200000B50021428905E043685B5C002B05D0491C89B28A42F7D8002000BD00F001F860
:2077400000BD4268535C5B1C53548289521E8281026800894843101870474268525C002A98
:2077600004D00268008948431018704700207047F8B50546002000902E682F890C46881B16
:207780003946FAF753D9002901D0002107E0A642FBD8698979438919A142F6D90121002943
:2077A00006D0696880B2085C002801D0012000900098F8BD10B50A4601890068101AFAF773
:2077C00035D980B210BD10B50A46044601890068101AFAF72BD9616880B20A5C521E120643
:2077E000120E0A5401D0002010BDA089401CA081012010BD70B504463E23042208210D4845
:2078000007F422F505466278A11C801CFAF764D921462846A27F1F311F30FAF75DD91020BE
:20782000287060786870A07FA877284607F444F570BD00000E0D000070B5044650230422D0
:207840000821064807F400F5054650222146FAF743D9284607F430F570BD00000D0D0000BB
:2078600010B5EFF3108472B60A4948610A4A104203D04A690242FCD107E0074AD2431042CD
:2078800003D04A6903469343FBD1002C00D162B610BD000000901420AAAAAAAA10B503F071
:2078A0007BFA04490420C860002002F0B5FF62B610BD00000000202004490A68C0075208EF
:2078C0005200C00F02430A60704700004000112004494A680005120B1203000D02434A607E
:2078E000704700004000112004498A680005120B1203000D02438A60704700004000112086
:207900000449CA680005120B1203000D0243CA60704700004000112004490A690005120B2B
:207920001203000D02430A61704700004000112004490A68FF231B049A43000402430A60BD
:20794000704700008000102003490A68120A120202430A607047000080001020FFB581B0D7
:207960001D46164607460A9C029901F0C7FA002801D000F009F90121204600F09DF804000C
:2079800022D000F0E5F80004124AC00A124980184118124803685B1C036072B6D26884C16C
:2079A000029A4E608D600A608C8201228A750022CA600A610168002902D00168491E0160AA
:2079C0000068002803D003E0022005B0F0BD62B60020FAE700011000180A0000E43C100061
:2079E00001480079704700000001100010B506490648FAF78AD805490548086006490548A9
:207A0000086200F0ADF810BDA41D00000001100078563412F0EDBC9A801E1000F8B5214EB7
:207A200005204002351820483168814204D11F481F49006A884200D0FEE7696900292BD04B
:207A40002869491E421C5206520E2A61696114214843841910341748C168090A09027631D5
:207A6000C160002C1AD060680D2201018919520289180F6AF0602068B060002FD3D0201DCF
:207A80000FC8B8470028CED00528CCD1206900900FCC02F069F9C6E70024DCE700203071E3
:207AA000F8BD00000001100078563412801E1000F0EDBC9A00101320F8B50346481C04D09A
:207AC000002901DC0020F8BD491E1C4F3868401C386072B600251A4A2C460C206043105A09
:207AE00000280CD0641C802CF7D33868002802D03868401E3860386800281BD01BE0114855
:207B00000C26201885B2204670431552861871600A211846F9F774DFB0600B48E1000818A5
:207B200005810A49C160074844221146401E07F4D7F3DAE762B62846F8BD0000E43C1000F0
:207B4000E83C100002FB0000E8421000C9A0800002494018802800D3FEE77047FE04FFFF17
:207B600010B50549442007F499F40548034901800449416010BD0000303A100001FB0000BB
:207B8000E8421000E99F800010B50246FFF7E0FF0C235843034B002119524421104607F467
:207BA00095F510BDE83C100038B50C46FFF7D0FF00041249C00A401811494218907F0028CA
:207BC0000ED0002C01D0002090775169002908D05068401C04D11068401C01D19069884791
:207BE00038BD5168481CFBD01068431CF8D013690093D368926802F0B7F838BD000110001E
:207C0000180A000001488068704700000001100003490968014201D00120704700207047C9
:207C20003054100070B5144B9A69202A21D2134C2168491C216072B616011149056876188A
:207C40000D21490271188D614568CD6185680D62C06848629869401C98612068002802D053
:207C60002068401E20602068002800D162B6104670BD0020C04370BD001D1000E43C1000D5
:207C80000001100070B50C46054601F053FA002804D02146284600F014FD70BD052070BD82
:207CA00070B5244D86B0286001F0FAFC291F224B08608380C3800381002443818481038032
:207CC00044800A46C4811832042620460621414389180B80401C4B8080B29480B042F5D373
:207CE00005A901A8059402F0C9FE012205A900200B5C002B0FD00F480E30831E021F009092
:207D000001A800F00DFE05A901A801F033FE00F06DFA06B070BD401C80B29042E8D36C8104
:207D20000320A881012000032881EC812C8203486860EEE7E4481000FFFF0000E83F0000C6
:207D4000F8B504460F46008801F06CFD01461848B94208D121886288914201D1608000E082
:207D6000F888208016E025881CE02846009501F059FDC588284601F055FD0646B84211D1D4
:207D8000009801F04FFDF188C1806088A84201D100986080384601F07BFDA188081AA080E6
:207DA0000120F8BD02488542DFD10020F8BD0000FFFF000070B504460E46084601F00CFD4E
:207DC000054620880949884200D12580F1806088884202D001F026FDC5806580304601F084
:207DE00057FDA1884018A08070BD0000FFFF0000F7B5064682B00D46084601F09BF90028EB
:207E000041D02846049901F065F8002803D03060082005B0F0BD1D4F1D48398A814201D1BA
:207E20000420F6E701F03CFC04002AD0388A401C3882E0810498A081A8886081204601F0BC
:207E4000CBFCA8801248A080284601F0C5FC2081092000F075FFEA89E189049800F07CF98D
:207E6000694600900888208049886180062148430649143140182146FFF79CFF0020346097
:207E8000C7E70220C5E70520C3E70000E4481000FFFF0000F7B5194F064682B0B81D0C46A4
:207EA000009027E0300A00023860B888FF210131091A8DB20099AC4209D84018224604999E
:207EC000F9F70ADEB8880019B88000240CE040182A460499F9F700DE0498641B40190490EE
:207EE000B88876194019B88081B2C81FF93801D100F02EF8002CD5D105B0F0BD1853100040
:207F0000F8B5124B0C46174619689E1D02198A420BD99B88CB18934207D3814202D9D1B2CB
:207F2000651A03E0C0B2861908E02546002D05D03A462946FBF427F27F19641B002C04D06B
:207F4000224631463846F9F7C7DDF8BD1853100070B50B4CA088002810D0FF250135FF28D3
:207F600005D8291AA21D8018FF22F9F7C7DDA21D2946206800F05CFD0020A08070BD000069
:207F800018531000F8B51C4615460E46074601F0D1F8002806D023462A463146384600F0E5
:207FA0009FFBF8BD0520F8BDF8B50025094F2C4606030948711900687A684018012190477D
:207FC000012000032818641C240685B2240EF0D0F8BD000060B48000E4481000F8B51C46D6
:207FE00015460E46074601F0A5F8002806D023462A463146384600F0B3FBF8BD0520F8BDFE
:20800000081A1949001F0A400105490D09040A43C101430210B54B40DB0FDB430124DB0757
:20802000E4061B09A24313436200134302024A40D20FD243D207A4009208A3431A4303233B
:208040009B071A43920A80029202800D0243E0148243C80F800202431F20C00282430F2051
:208060000003101810BD0000FFFF00F801700A0A42700A0C8270090EC170704710B50521E9
:20808000024801F0BBF80121484010BDB448100010B50B49002408890206120E0BD0FF237C
:2080A000C2B201339C1A4A68C018121B4A60FF22120210400881FFF74BFF204610BD000080
:2080C000E448100001207047F7B5074690791646551C5279010211431C4801F0B3FB040094
:2080E00008D0208806214843194940182146FFF727FE0AE001F0D4FA044668792A79010298
:208100001143E1811349A18061812780019860806878297800020843A0813079F178000227
:20812000084320810A4A6879143A2B79118A00021843814200D210820620474304482146AA
:208140003818FFF737FE0920FEBD000095818000F8481000FFFF00003EB501246B461C7087
:208160005870000A98705971080A9871DA70100A187107220020FF2369468E3398476B46E8
:20818000D871000A187200231A460921684601F089FB3EBD0A68131D0B601188828889B24C
:2081A000002A04D0C089884201D10120704700207047000010B590785278010211430948EE
:2081C00001F040FB04000AD0208806214843064940182146FFF7B4FD204601F0F5FA05201B
:2081E00010BD000095818000F8481000F8B51A4E1A4D002406206043305A02E002F0FCFD0C
:20820000C088A842FAD1641CA4B2042CF2D3124F183F3868408901F005FB0146386800F0AD
:208220001FF8386801F0D8FA06460EE0304601F0F9FA46890446304601F0F4FA002804D0C6
:2082400000892189884200D06581AE42EED1386801F0D0FAF8BD0000F8481000FFFF00005E
:2082600070B50C46064601F0B7FA03E0608901F0D9FA0446002C03D02089F1898842F5D10D
:20828000251E13D02089F18988420FD1284601F0A3FAB08003E0688901F0C4FA0546002DC4
:2082A00006D02889F1898842F5D00DE0002D0BD170BDA088002803D029462046FFF7D0FF4E
:2082C000608901F0AFFA0446AC42F2D170BD02460020802901D98D207047062A06D0072A6D
:2082E00007D0082AF8D10729F5D170470829F2D170470629EFD37047704730B502460120A7
:20830000002103241346CB40DB0704D04D0023466D1CAB401843491CC9B20929F2D330BDB2
:20832000704770B50546046904E0201DFCF7FCDF06F4EEF56068002808D000210029F4D007
:2083400000202861204606F4E3F570BD0121F5E730B50446A2890920521C93B2E48900224C
:208360002546D540ED0706D05D1C8D4201D1104630BD9B1C9BB2521CD2B2092AF0D330BD7D
:20838000FFB585B00E9F04461D463888FFF7B5FF049028461E210840A18A1A4A0023019163
:2083A000009302920390132304AA17490698FAF7B1DB060022D10121142006F49BF6206149
:2083C0000699098881813988C181E90701D00121C903079A11430180A18A41801421E182BF
:2083E0000121E18101461231A1600849001D6160FCF7EDDEA08A002106F4EAF7304609B02C
:20840000F0BD000030B580000A180000F0B5800000487047C8B58000FFB581B00C4614209C
:2084200001F054FD21780746092931D200F0FEF800282BD061782078FFF749FF060028D128
:208440007D680DE028792178884208D100222946381DFCF731DE284606F45AF502E02D6857
:20846000002DEFD160780121083006F443F6054620782871607868716278A11CA81DF9F731
:208480002BDB2946381DFCF759DF02E0822600E0812602230648039A049906F4D5F62178CB
:2084A0000170467006F408F7002005B0F0BD000001140000F8B517460D46104606F45AF707
:2084C000012831D1142001F001FD0446017C00F0ADF80646217C2A781448914214D1617C76
:2084E0006B7809023A46C91D9B1D06F4ADF60446068000202071687860806A78A91C601D6E
:20850000F9F7EADA204609E0617C062309023A46C91D06F499F606808021017106F4CCF603
:208520000021384606F454F70020F8BD140C0000F8B50E4609781846002425460B00F9F7F8
:2085400026DB0906091215181B0C1E0F2000052416A516E00A2417A513E0082418A510E0BF
:2085600007241AA50DE00D241AA50AE011241DA507E0152420A504E00D2425A501E0062484
:2085800027A50146A31C284806F45EF60746307838707C70002C04D022462946B81CF9F727
:2085A0009BDA384606F488F60020F8BD426C75657800000042582D424C452D352E30000021
:2085C000123456FFFE9ABCDE00000000025E04400000030042582D4445564943452D303023
:2085E000310000004258323430305F6552463031652D47313000000046522D56312E302E1B
:20860000302D536570203237203230323400000053444B332D31343A30373A353800000075
:20862000FFEEDDCCBBAA00000314000010B58289C489521C93B200222046D040C00706D023
:20864000914202D15B1C9BB205E09B1C9BB2521C52B2092AF0DB092A01D0184610BD002008
:2086600010BD000000487047FF0F000070B50D462C460C2254435823C66841686B439B19BD
:208680000A59DB691B051B0DD21A0A5141680ED02946F9F47BF50120A84081068006890EA4
:2086A000800C01430720C0013018016270BD221D08348E580C592946F9F47FF62046B04736
:2086C00070BD38B504466A4600F04EFC010005D02046009A01F02AF8002038BD0A2038BD2F
:2086E000FEB515461E46002200F03EFC040034D0E089318888422ED8218868468180618881
:208700000180E7890922694601A802F0FDF9684601882B463A46808801F05EFA3A46694655
:2087200001A802F0F1F96846018802AB0222808801F052FA0020FF233A4629468E33984796
:20874000014668460089814203D1E08930800020FEBD0120FEBD0320FEBD0A20FEBD000071
:20876000FFB581B01F460E460546002200F0FCFB040008D0208806214843114940182146B8
:20878000FFF7DEFA10E000F08BFF040015D00020A080284601F020F82081A681A888608128
:2087A000204601F019F8A880EB893A462046039901F0A4FD002005B0F0BD0220FBE700001B
:2087C000F848100001207047704770477047000008B50092034A0B461146203900F05EF869
:2087E00008BD000078B28000F0B585B0044600294FD1204608300390001D0290001D01900F
:20880000001D071D3E1D244D0090F9F753D901462046FFF72BFCF9F74DD90146201DFFF745
:2088200025FCF9F747D901460398FFF71FFCF9F741D901460298FFF719FCF9F73BD90146D3
:208840000198FFF713FCF9F735D901460098FFF70DFCF9F72FD901463846FFF707FCF9F7F8
:2088600029D901463046FFF701FC1F20215C002901D1401EFAD5401C02D120780028C4D0DF
:208880001F20215C2A5C9142BFD8914201D3401EF7D505B0F0BD000098B28000F0B51C4628
:2088A00087B017460E4605464023FF2220460C9906F4CAF404461C2208496846F9F70CD9E2
:2088C000204620300490039406946846E0C06846FEF71AFE0028FAD107B0F0BD18B4800071
:2088E00010B506F4E9F410BD7047000010B5002801D00A4C01E0094C103C208880B2FEF7F3
:20890000E7FFA08880B2FEF7EFFF208980B2FEF7F7FFA08980B2FEF7FFFF10BD6848100093
:20892000FFB581B00021029F1D46044601267B5C0020324682401A4202D1401C2028F8D3ED
:20894000202803D0C900081886B204E0491C0904090CECD000263146384601E00E460298CA
:2089600000F0EBFA0146B000205A8A00A25A401C9042F3D0B0008A00205AA25A801A00B23E
:208980000028039802DD01802E8001E00680298028888000215A0A98018005B0F0BD0000C6
:2089A00010B5020501D0012010BD044A904202D800F006F810BD00F01BF810BD00F0FF00B8
:2089C00010B504460B00F9F7E2D8050406090B0D0F00812000E02020002205E05220FBE778
:2089E000D820F9E7602001222146FAF4BEF310BD10B50346012907D0022907D0032908D014
:208A0000042908D0042010BD212000E05C20002203E0DC20FBE7602001221946FAF4B7F346
:208A200010BD134610B502461846FAF4E8F310BD13460A4610B501460220FAF421F310BD69
:208A40007CB50D4606469F2069460871144603236A46012101A8FAF4ACF3002808D1694627
:208A6000097831706946497829706946897821707CBD00007CB5054609A000680C460190E1
:208A800002236A46042101A8FAF493F3002806D169460988297069460988090A21707CBDCA
:208AA000900000007CB51C46134608A224CA0092CA050001D20F104301956A469070D17085
:208AC000224605216846FAF474F37CBD480000000000000010B5002823D0124B0022001F06
:208AE000196803E0814203D80A4649680029F9D1002A0AD01368841A9C4204D10068181818
:208B00001060104602E0506000E01860002907D002680B1A934203D10B68D21802604968FD
:208B2000416010BDDC3C10000020704710B5180A0B4AFF2890700ED00988118001022C2313
:208B400004220848093106F47FF3002228210A5406F4B2F301E0FEF765FD002010BD00006C
:208B600028551000020E000010B5FEF75DFD002010BD000070B50C46097818481E46002972
:208B800005D0002501290FD0022916D117E01C23314606F459F3054620782870281DFEF718
:208BA0007BFC6880284606E00A23314606F44CF321780170458006F47FF3002070BD0A2370
:208BC000314606F441F321780170082141800A218180C580C8210181EDE700000B0E000033
:208BE00010B518460C4601460223054806F42CF3482141702178017006F45EF3002010BDD2
:208C00000D0E000070B50A780F2A66D006DC0C2A63DA012A0FD0032A5FD158E0102A5CD0C9
:208C200000262F481A252F4C1A2A23D01B2A18D0282A52D13FE0487800284ED1284830231B
:208C400004220821153806F4FFF20446FEF75AFD204606F431F344221146234806F440F31E
:208C60003BE001230422082106F4EEF205700121617214E0617A012914D01948112304228A
:208C800008210A3006F4E0F20546667228201549287010220839681CF8F71EDF284606F4F9
:208CA0000BF31AE00221617201230422082106F4CBF20570F3E76672FEF744FB00280CD13C
:208CC0000221042006F484F3FEF7DAFC05E00121042006F47DF3FEF735FB002070BD00000A
:208CE000190D00004855100001FB000010B5012304220821044806F4A7F20121017006F401
:208D0000DBF2002010BD0000020D000010B50848427A012A02D0022A04D006E00448082260
:208D2000083800E00822F8F7D7DE002010BD00004855100010B5104606F41CF3002010BD9A
:208D4000F1B584B00498019002A8009023480025224E4089224F2C4614360621414389198F
:208D60008988791A4D1901998D4203DD0098641C048005E000F0DAF8641CA4B2042CECD398
:208D800017490498154F461816E0164D009003E000F048FD00F08CFC2088A842F8D1FFF74B
:208DA00077F90098FFF700F90D48796808187860788900F0BBF878817889062203465343E9
:208DC000064A796814329C18A2889219914202D8B9898842D9D105B0F0BD0000E448100092
:208DE000FA0F0000FFFF000000207047FFB581B0002000900E46039806F4BCF2002802D06F
:208E000001284BD04CE0142001F060F807463188FFF79EFA05462448092D35D27C6803E016
:208E20002179A94203D02468002CF9D117E0002C15D06379039A9B1D049906F405F2054646
:208E40003088288000202871607968806279A11D681DF8F741DE284606F42EF220E03D74D3
:208E60000498010A7974384601F028F8014601230E48039A06F4E8F1057006F41DF20121FE
:208E8000039806F4A5F20BE00623039A049906F4DBF13188018080210171DDE702200090CF
:208EA000009805B0F0BD0000140C00000214000010B50421014800F0B9F810BDDC481000AD
:208EC00010B501F03DF9012001F026F900F046F8C0B210BD70B50C468088074D08E000F05D
:208EE000A1FC8188002902D08189A14203D04089A842F4D1002070BDFFFF000070B5094CD4
:208F0000094D002253011B195B195E68864204D19E688E4201D1988B70BD521C802AF1D3A6
:208F2000002070BD00011000180A0000032802D0401C80B270470020FBE770B505460124D8
:208F40000846FFF7F3FF0146C0084B07285C5B0F22469A401042F3D0084670BD0148806889
:208F600070470000C448100070B5808814000D4601D000212160094EB0420CD000F052FCB4
:208F80008188002902D18189A94205D0002C00D020604089F0E7002070BD0000FFFF00009B
:208FA000F8B50746491EFFF72BF80646BD1EBC1C684600F065FE2888320480B2024368462C
:208FC0000078294600F070FE0E4D2968684602780127384690400143296000A8013000F02C
:208FE0004FFE2068320C000C0004024368464078214600F059FE29686846407887403943BB
:209000002960F8BD8030132010B5FEF7C3F8064C608001F0A1FE20706178884202D0607023
:2090200001F072FB10BD0000A43C1000F8B50D46064600240AE0FFF743FF0701FFF740FF46
:209040000007000F38433055641CE4B2AC42F2D3F8BD70B50D460446022100F04DF8012041
:209060008004F9F4D6F61F226068520180182968202200F0C1F91522606852018018696887
:20908000202200F0B9F90B22606892018018A968202200F0B1F909216068890140180822E1
:2090A000002101F0C1F913266068760180190822002101F0B9F905216068C90140180822AB
:2090C000002101F0B1F9172560686D0140190822002101F0A9F9606801228019114601F05F
:2090E000A3F9606801224019114601F09DF961680120886070BD000010B5002909D00129C2
:209100000DD00A4802290FD0032901D10021C17010BD02460321064801F026F910BD03213E
:20912000034801F024F910BD0121F0E7B44810009C48100070B50546014600240548FEF7F3
:2091400017FB002803D0A888002800D00124204670BD0000B43A100010B50121881FFDF7A2
:2091600077FE02210020FDF773FE00210120FDF76FFE00210220FDF76BFE00210320FDF757
:2091800067FE02210420FDF763FE02210520FDF75FFE02210620FDF75BFE02210720FDF761
:2091A00057FE02210820FDF753FE02210920FDF74FFE02210A20FDF74BFE02210B20FDF771
:2091C00047FE02210C20FDF743FE02210D20FDF73FFE02210E20FDF73BFE02210F20FDF781
:2091E00037FE02211020FDF733FE02211120FDF72FFE02211220FDF72BFE10BD04E0425C8C
:20920000002A01D000207047491EF8D201207047F7B5064682B01A200221009005F46AF702
:2092200005460021102005F465F70446002D20D0002C1ED0B000104901900858009A476978
:20924000284640370399F8F747DCA560A68004982073EFF3108572B621463846FCF76ED864
:20926000002D00D162B604490198085840690EF469F005B0F0BD000040F812001CB50C22E3
:209280006B461A70092159706021598003499980C0B26946FFF7BCFF1CBD00000B04000027
:2092A00038B5684600F0ECFC0A490B4C491E2046FEF7A6FE02466B462146187800F0F4FC5B
:2092C000064801686B461B7801229A401143016038BD0000196D8000242F010080301320AF
:2092E00070B50C46EFF3108572B6FCF717DE002D00D162B6002801D0641CE4B2204670BDB8
:2093000010B500F001F810BD70B5144CA07B032820D0607B01281DD10423114A0021114829
:2093200005F492F70021104B61731A680125AD04AA431A60A27B002A0DD00C4AD289428004
:209340000322A273017005F481F100221146012005F4C6F770BD064A5268F0E7ACF71200E4
:209360001F20000001080000000010205884120000011020FEF792FAFEF738FBFEF72CF993
:20938000F8F41AF6FEF74AFBFAE70000F0B50B30C108C900144F0026144A0FE003688B4236
:2093A0000BD38B4205D95C1A4318456830C3083B00E04368136002C004E0021D106800280D
:2093C000ECD13046002803D13868002801D00020F0BD064A06481060064A121AD208D200C2
:2093E00044C001203860D7E7E03C1000DC3C10005C5510005856100070B5002394080CE04F
:20940000CD780A782D062A438D784E782D04360235432A4304C0091D5B1C9C42F0D870BD98
:2094200010B500F06BF803490120087003490248486110BD5448100077040000400011208B
:2094400070B52A4C60690521800980010843606160690F21090288430121890208436061E4
:2094600060697F2109068843092189060843606120680721490288430121C9020843206066
:209480002068062188430843206021680120C0058143014321601648006B144EC006403628
:2094A000C00E144D801F75617069F021884340210843706120684905884308432060A06B5F
:2094C0000721090388430843A0630B480078002803D0022001F030FB7561E1690020E061BA
:2094E000206A000A0002206270BD00000000112080102020770400005448100030B589B0E1
:2095000020216846F8F701DB524C00250120FEF7D3F92068C007C00FFBD00820FAF46CF28F
:2095200020688007C00FFBD1FEF7C6F9606800990005800E40180090A06801990005800EBC
:2095400040180190E06802990005800E40180290206903990005800E4018039060680499BA
:209560008006800E40180490A06805998006800E40180590E06806998006800E401806905B
:20958000206907998006800E401807900020FEF79FF90020FEF7A8F90020FEF7B1F900205D
:2095A000FEF7BAF96D1CEDB2402DAFD300982A4CC01F800900900198C01F800901900298BA
:2095C000C01F800902900398C01F800903900498C01F8009049005980499C01F800905902C
:2095E0000698C01F800906900798C01F800907900498C001014321600599FF30CB0119431A
:2096000061600699069AC9010A43A260079A079DD2011543E560049C0130A41C20430E4C2E
:20962000FF331034206005980133801C034363600698FF31801C01310143A1600798801CA2
:20964000FF32013202430020E260FFF74FF909B030BD00004000112058481000F8B5040A3F
:209660000022142C15D10C4E0C4F32790FE0D4003568083C2D192C88844201D0BC4204D13A
:209680006C680422A047C2B203E0521ED2B2002AEDD11046F8BD000000B68000FFFF000077
:2096A00010B50248FEF73CF810BD0000B43A10007CB504460088062148431B4D21464019CA
:2096C000FEF73EFBA088002820890DD000F0AAF8C289E189A089FEF73FFD0090684600881F
:2096E00020806846408816E000F09CF8C189E289A08900F079FD0090E0896A46801C81B21E
:20970000208890806088D080019800F0A4FD6A4610882080508860802088062148434019DC
:209720002146FEF747FB7CBDF8481000FEB506468888FF278E3715460C46002813D005202B
:20974000FFF7FEFAE089032269460A704870000A88700020B8476946C870000A00230871FE
:209760001A46052118E00720FFF7EAFAA089F18902236A4613705070000A9070D170080A52
:209780001071052269460020B8476A465071000A002390711A460721684600F083F860892A
:2097A000002D01D0688100E0B080208806214843044940182146FEF7C3FA204600F004F848
:2097C000FEBD0000F848100010B501460148FDF7FAFF10BDB43A100010B5002804D0014669
:2097E0000248FDF7E7FF10BD014810BDB43A1000FFFF000070B5054680880AE0A0880028B4
:2098000002D02046FFF7F6FF2846FFF7E5FF2081608900F007F8040003D02089E9898842A8
:20982000ECD070BD054910B5884201D1002010BD01460348FDF791FF10BD0000FFFF0000C2
:20984000B43A10000FB4F8B5002407AE06200E49604340180088069F08E0FFF7E3FF054611
:2098600069460096B847002804D1E88807498842F3D10025280003D1641CA4B2042CE5D37A
:20988000F8BC08BC04B01847F8481000FFFF00008188002901D0092001E0C0890B3080B22C
:2098A00070470000FFB5324E0C46706881B0001B7060308901273F03B8420CD1B089FFF74E
:2098C00035FBB081F1890622491C89B2F18101F003F90620308169464880B089088034E063
:2098E0003089B8421CD10398002806D004982018801DB84206D3002505E001200390049891
:209900002018801D85B2B089FFF710FBB081F1892A46491C89B2F18101F0DEF80620308136
:2099200081B20819B842306814D9B289401812038018791A019AFEF7ADFA30890199381AA5
:209940004118201A019184B23781002CC8D1009805B0F0BD89B24018B189019A0903401869
:209960002146FEF797FA308900193081EFE70000E4481000F3B53C4EC3B0B5894498294637
:20998000FFF7DBFA0546810043980818448846E06F46284621463B46092200F01DF9684659
:2099A0000078042824D23149085C6946801EC2B2B81803780B73407848730020FF23394671
:2099C0008E33984769468989884201D1012000E0002000280CD06846007824498000083119
:2099E0000B586A46214628469847201884B216E02006000E0ED12903306809194018FF21CB
:209A000003AA0131FEF77CFA002103AA88001058401C1AD0FF200002FF34013404401449CE
:209A2000A01F8842B4D3B089A842A7D1012000033481021B7260B189708981420AD30323BA
:209A4000591A08180A49484309E0491CC9B24029DCD3E8E7401A0649484349424018801836
:209A6000706045B0F0BD0000E448100060B48000FA0F000010B500240300F8F788D809084F
:209A800006060606060606060800052407E0014604480068FEF7F6F8002800D0012420461D
:209AA00010BD0000FC4610007CB50C46014615460026022001220B00F8F769D80948062243
:209AC0003C2D33333E3C48002078062837D306202070014601202A464003F9F454F40121FD
:209AE00000202A5CFF2A41D1401C0628F9D300293CD01FA003C8019106220090694606E091
:209B0000207805281BD30420207005221AA12846F7F7E2DF2AE02178022910D320708220FC
:209B200011E0217802290AD32070B82028700B2068701BE02A7019E02178022901D2042047
:209B40007CBD2070142028706E700FE020786A4610800B486B462A460068FEF713FA0028C5
:209B600001D001207CBD68460088207000207CBD999999ABCDEF000053444B330000000054
:209B8000FC46100010B50548034A01680448FEF72FF9002010BD0000FEFF0000E048100020
:209BA000FC46100010B500240300F7F7F0DF090806060606060606060800052408E00B46FF
:209BC000014604480068FEF709FA002800D00124204610BDFC461000FFB505461346124F37
:209BE0000003421838680124CE182403801881B0A64202D81946049A11E0611ACCB2191B90
:209C0000CEB22146049AFEF77BF92846FFF78EF900033968801D401804990A193146FEF7A6
:209C20006FF905B0F0BD0000E448100010B51946E1200623000105F407F3012101700349FD
:209C40008180418005F438F310BD0000FFFF000008B5684600F014F8AF226B46D200064949
:209C6000187800F021F8054801686B461B7801229A401143016008BD2C5401008030132076
:209C800030B50021074C012522682B468B401A4202D10170012030BD491CC9B21029F3D3F2
:209CA000002030BD8030132070B5074C8903064D8000090C2358054E403549043340C90BF1
:209CC0000B4323502A5070BD003013200300FEFF10B50C490020086000F0BAFFFFF7B8FFC1
:209CE00000F062FF00F080FF00F0D6FF01F00EF800F0B8FF00F03AFF00F0EEFFFFF7D0FA7B
:209D000010BD00008030132010B50A210248FFF775FA0121484010BDB948100070B50D46F4
:209D20000646002407E0A0003058002801D001688847641CE4B2AC42F5D370BD10B572B68D
:209D40000649096808600649884205D00549884202D0022001F076F810BD0000504710000E
:209D6000C3C3C3C3A5A5A5A5F0B5164D164F6C69802C01D3002409E02E7C3619641C76067F
:209D80006C61760E14246643F4191034002C13D00E4D2E68761C2E6072B60FC40598206008
:209DA000012038712868002802D02868401E28602868002802D002E00920F0BD62B600205F
:209DC000F0BD0000000B100000011000E43C1000F3B5054681B00026408800F0FBF8010084
:209DE0000AD01C4F6A88002018234343DB19DB8A934203D142262AE0402628E0401CC0B29B
:209E00000A28F1D3002E22D1002418206043C019C08AFF2806D0641CE4B20A2CF5D30A2CC2
:209E200014D014E028460830009018206043C0190E686B78AA880746A91DB0470600EED106
:209E40006888F8820298B98A0180E8E74B263046FEBD000034541000F3B50B4E81B00F46AA
:209E60000024182060438519E88A00F0B3F8002804D0C3683A46284601999847641CE4B294
:209E80000A2CEED3FEBD000034541000F8B50A4E07460024182060438519E88A00F09AF895
:209EA000002803D08268394628469047641CE4B20A2CEFD3F8BD00003454100002885004C0
:209EC000400CD20B01D009020843704710B50024094A214618234B439B18DB8A834204D15D
:209EE000182041438818046903E0491CC9B20A29F0D3204610BD00003454100030B5FF230E
:209F0000040AC5B209490020182242435218928AAA4204D1182250434018C38A03E0401C93
:209F2000C0B20A28F0D32002184330BD3454100030B5FF23040AC5B20949002018224243FB
:209F40005218D28AAA4204D1182250434018838A03E0401CC0B20A28F0D32002184330BD38
:209F600034541000F8B50025194EFF27002818D00024182060438719F88A00F02BF800287E
:209F800002D0416838468847FF20F8827D60BD60FD81387D05F4F2F2641CE4B20A2CE8D34F
:209FA000F8BD0024204618214843811922460A320D618A82CF824D608D60CD818D8135501A
:209FC000087D05F46BF2641CE4B20A2CEAD3F8BD34541000014610B50020C9B2142901D19A
:209FE000FEF716FA10BD000070B50C4E00240C2025464543705B00280AD0442105F450F35F
:20A00000002805D1A8198268705B442105F4E2F3641C802CEBD3002070BD0000E83C10002E
:20A02000F0B5EFF3108472B6C3689C469B6E4A7A0E7A5207D50F0122B5401746B740BB43D4
:20A040001D4363469D66C3689D6B9C464B7A1746DE070B7AF60F9E409F40BD432E43634677
:20A060009E63C368DD6B9C464B7A17469B07DE0F0B7A9E409F40BD432E436346DE63C5680F
:20A080002E6B0F7A1346BB409E4333432B63C068436B097A8A4093434363002C00D162B6B1
:20A0A000F0BD000010B5002906D0012903D10821044800F05CF910BD02460821014800F000
:20A0C00053F910BD7848100070B506460025FDF73FFD0C2148430F4944186268002A04DC91
:20A0E000531C02D0002A0BD0FEE744213046A26805F470F36068002805DD401E606002E022
:20A1000000220A52012529463046FDF74DFD002070BD0000E83C1000074901E0002809D0C5
:20A12000CA68D207D20FF9D1C8688000800B01D0024988607047000040201320C4481000C4
:20A140000348C1684A08520001210A43C260704740201320F7B51346521C064650781178FC
:20A16000154600020843DA1C17461979DA780902114302461A48FFF765FB040008D020881D
:20A1800006214843174940182146FDF7D9FD10E0FFF786FA044668782A7801021143A18179
:20A1A00078783A780102114321810021A180491E618126800198608068792979000208438A
:20A1C000E08106204643074821463018FDF7F2FD68792979000208430B3080B2FEBD000096
:20A1E00029A28000F84810003EB5144600236A4613705070000A9070D170080A10715471BE
:20A20000200A907118460722FF2369468E3398476A46D071000A1072A41CA3B2002209213D
