:0200000400807A
:2000000042583234008012001C14000019821200000004000000070008006BA035110129E3
:20002000B0B56946427800AF9206920FD31DDB08DB00CB1A9D4605006946007801F08EF9F0
:20004000072101206B786C461B071B0FDA100B409840A25CBD461040431E9841C0B2B0BDFF
:20006000F8B56A46447800AFA406A40FE31DDB08DB00D31A9D460500220000216846D9F608
:200080004EFD07226B786E461B071B0FD9101340063A9A40287872546946220001F069F929
:2000A000BD46F8BD10B5064C064B9C4200D310BD626820680021D9F632FD0834F4E7C04614
:2000C000049412000C94120070B5050007480E00140000F0F3F8012032002900404200F060
:2000E00011F9001B43425841C0B270BDB71DC1048021F0B53F4B404C1B6985B02200180036
:200100004900009301F084F83C4B3D4D22682B603C4B9A424CD13C4B3C482B60009B6268F5
:20012000A1681818FFF7D0FF00285ED08022384B52012B60374B00211868D9F6F0FCA3687F
:2001400000261C0B1A050133120DFF3302921A05511E8A411B0BD3180393A3B201932E4AB9
:20016000F51C009B2D03AF180133019AFF33FF1896421FD3D51C1403E418214E274B2D03E5
:2001800001212800336001F0CFF820000024214F02993A6801F03CF83A680299280001F05E
:2001A00086F81F4B3360039B9C4216D11D4B336005B0F0BD0121280001F0B6F88021154C19
:2001C00049012268380001F023F8802122684901280001F06CF80136C1E7009B2003C018A0
:2001E000012101F0A1F80134DDE780239B012B60DEE7C046F07F1200149812000110000075
:200200000C94120078563412021000000001800003100000C093120000D0FFFF041000002B
:200220000510000006100000B0B500AF72B680221D4B1201DA67202000F014FAFFF732FF94
:2002400000F056FA00F0D0F900F0FAF900F024FF164C20001A3000F031FD00F049FD00F09F
:2002600077F83F22E37E9343802B09D120001C30FFF7D6FE002803D120001E30FFF7F0FE6E
:2002800000F06CF8FFF734FF094B1B6883F3088821002000074B18311C681030064B0022F1
:2002A000A047BD46B0BDC04604E100E0F07F12000030800004308000993300001F23002108
:2002C0000122F0B5104202D014009C4021434008013BF7D2802400220126094D64001300D7
:2002E00008201F005B08374000D04B4001380028F7D1900001322B50A242F0D1F0BDC046C3
:200300001094120030B5FF25074C8A18914201D1C04330BD0B78013143402B409B001B59E2
:20032000000A5840F2E7C046109412000722064B9A6080221204DA60044A1A6105225A6076
:20034000BFF34F8F7047C04690ED00E02D00021010B5002000F0E0F910BD000010B500F084
:20036000F9F90022014B5A6010BDC04690ED00E010B5FFF7DBFF00F007FA10BD10B54020BB
:20038000002900D0802000F03DF910BD10B5202000F060F910BD0000002905D14022094B01
:2003A0001860094B1A607047012903D14022074BDA67F8E70229F6D1C023034A5B003E3182
:2003C000D150F0E71098120000E100E004E100E010B50200032908D8080000F0CFFF020743
:2003E0000C100021074800F071FE10BD0021054800F06FFEF9E70122034B1A70F5E7024B76
:200400000022FAE78899120080991200704710B58020002903D1C00000F0F4F810BD0001F8
:20042000FAE7802010B5800100F014F910BD000010B5052A11D8100000F0A0FF0310131673
:200440001E210F220F4919200B6A93431A00032313430B620C2100F043F910BD0D211A20BF
:20046000F9E70D211B20F6E70F23064A1C20116A0B4313620D21EEE705211D20EBE71C21E5
:200480001820E8E7002013204020704710B5012404480A00036C2240A34319001143016422
:2004A00010BDC0460020132010B58020002903D1400000F0A7F810BD8000FAE700DF704721
:2004C00001DF704702DF704703DF704704DF7047F8B50D0016001F000400FFF749FF3B004E
:2004E00032002900200000F032FE0400FFF736FF2000F8BD10B5EFF31084002C02D0FFF72E
:20050000E7FF10BDFFF7DAFFFBE770B50D0016000400FFF72DFF32002900200000F02BFE75
:200520000400FFF71BFF200070BD10B5EFF31083002B02D0FFF7E9FF10BDFFF7C1FFFBE7E0
:20054000F8B50D0016001F000400FFF711FF3B0032002900200000F033FE0400FFF7FEFED5
:200560002000F8BD10B5EFF31084002C02D0FFF7E7FF10BDFFF7A6FFFBE770B50D001600FF
:200580000400FFF7F5FE32002900200000F013FE0400FFF7E3FE200070BD10B5EFF3108390
:2005A000002B02D0FFF7E9FF10BDFFF78DFFFBE770B50D0016000400FFF7DAFE32002900BA
:2005C000200000F001FE0400FFF7C8FE200070BD10B5EFF31083002B02D0FFF7E9FF10BD1D
:2005E000FFF774FFFBE70000034B044A13615361034A136153617047AAAAAAAA00201320C5
:200600000090142010B5EFF3108272B6094B0A495861084206D059690142FCD1002A00D168
:2006200062B610BD05490842F8D0040059698C43FBD1F3E700201320AAAAAAAA55555555EB
:200640000022034B5A62C02252011A627047C04600201320024B9861400898617047C04669
:2006600000201320024B9861400898617047C0460090142030B5EFF3108472B6164BCA076A
:200680001DD51A6802431A605A688D071AD502435A609A684D0717D502439A60DA680D070C
:2006A00014D50243DA601A69C90611D5104318611A680A4B5A65002C00D162B630BD1A68B4
:2006C0008243E0E78243E3E78243E6E78243E9E782431A61ECE7C046C49312000010202006
:2006E0000123834010B51800FFF7C4FF10BD00000022034B1A660332DA655A657047C046D0
:20070000001020200122034B9A61DA61DA69002AFCD17047001012200B4B70B51B680500AC
:200720000121002098470021084B094C1B6808009847FFF7E7FF656000F02CFB9C235B058E
:20074000A060E36070BDC046BC931200B89312000010122070B5202000F00AFB051E0DD1C8
:20076000074B084E1B6801009847F46800F00AFBFF239C432043FE3BF0603360280070BD48
:20078000B89312000010122010B500F00BFB041E05D1044B01211860034B1B68984720004E
:2007A00010BDC04600101220B893120070B588B0040002A803610F4B8260838200238375FC
:2007C0006B4622000E00DD1D60322900C26000F06BFC2661287800F071FC0423A26A1A42F7
:2007E000FCD00122A36A1340FCD1A360236108B070BDC0464092FFFF70B50400204D6B6832
:20080000984700212000EB68984701230022617A20002E69B0473F22237A9343802B0BD15C
:20082000617B7F3B3B3A20002E69B047217B0123032220002E69B04701232E69A17A1A007C
:200840002000B0472E69E17A200001230222B0472E69A17B200001230522B0470026236969
:2008600020009E60A28801215A61A279F0331A60EB6898476B69310020009847300070BD08
:20088000A0931200F0B5040085B0019102920393FFF7FAFD230014330700180000932569E2
:2008A00000F01BFC03000220002B24D0134E00212000F36898470221200073699847104BB8
:2008C000043F2B6000232F650127EB640233029AEB640199039B2800AF60FFF767FF03210D
:2008E000200073699847F368390020009847009800F001FC002005B0F0BDC046A093120038
:2009000000010700F0B5060085B00C0002920393FFF7BAFD3300143318000193356900F058
:20092000DCFB03000220002B28D0184F00213000FB6898477B69022130009847144B2B609E
:200940000123AB60002303999AB2914218D804232C61AA6A1A42FCD00123AC6A1C40FCD147
:20096000AC60032130007B692C619847FB68012130009847019800F0BEFB200005B0F0BD6F
:20098000029AD25C01332A66DDE7C046A093120000010700F0B5050085B002910392009318
:2009A000FFF772FD2B00143307001800019300F094FB03000220002B33D01B4E0021280029
:2009C000F3682C6998470221280073699847174B043F2360002327650127E3640233E36480
:2009E000039BA7602366009B02991A0CFF231A402266009A2000120A1A402266009A1340C4
:200A000023660A9A0B9BFFF7D1FE0321280073699847F368390028009847019800F06BFBAD
:200A2000002005B0F0BDC046A093120000010700F0B58FB0049314AB150004CB07001B8819
:200A4000039102930300143318000193059200F044FB03000220002B3DD0224E002138008B
:200A6000F3683C69984773690221380098471E4B2360029B013B6360072363650023E3649D
:200A80000133E364A360049BEB189D4225D12300002508A860338360059B8575C360029B99
:200AA0000361124B838206ABD91D00F0FDFA039B236106ABD87900F001FBA5600321380071
:200AC000736925619847F368012138009847019800F011FB28000FB0F0BD2A7801352266B8
:200AE000D3E7C046A09312000003070080A4FFFFF0B51F00030014338DB0050018000291CA
:200B00000392019300F0E9FA0226002859D03E4C3100636928009847E3680021280098475F
:200B2000297A2C698B068A074ED11B0F083BDBB2F022DB02D2011340882289079200890FC9
:200B4000114322000B43F43213602B7A2F4A9B095B05134323607B1E636000260123E6644D
:200B6000A360EB7928002366129B2366FFF78CFC874234D907236365063BE364230006A888
:200B8000EC338360039B8675C360214B0761838204ABDE1D310000F087FA029B30782361A9
:200BA00000F08CFA0026A6602661174C01212800E36898472800636903219847019800F0B5
:200BC0009AFA30000DB0F0BD180F0E003F239E43031FDBB2802EABD10238C3B2A8E7029BBB
:200BE00023610423A26A1A42FCD00122A36A1340FCD12200EC32BB42D4D21068039E990031
:200C000001338851DBB2F6E7A093120000021F0092A4FFFF70B5050014300E00140000F043
:200C20005CFA022300281FD0104B0021DB682800984786202B7A2A6999069B07090F9B0F7B
:200C40008000C90203430B431100F4310B602B7A07499B095B050B4313600123A408013C4D
:200C60005460166193600023180070BDA093120000021F00006960307047C07970470000E8
:200C800070B5060014360500300000F041FA032400280ED001222B699C6A1440FCD19C6078
:200CA0001C61054B2800DB6801219847300000F022FA200070BDC046A093120002220123DF
:200CC00010B50A4C0100E01DA371A280D8F60CFF192363720133A3720133E372013323733F
:200CE00001336373053BA37310BDC046D893120010B50248FFF780FD10BDC046D893120072
:200D000010B502000B0002480121FFF7BBFD10BDD893120010B502000B0002480121FFF769
:200D2000F1FD10BDD893120007B5019300920B00020001210148FFF72DFE0EBDD8931200B8
:200D400007B5019300920B00020001210148FFF76FFE0EBDD893120007B50B000092012113
:200D600002000248FFF7C4FE0EBDC046D893120010B5020001210248FFF74CFF10BDC046DA
:200D8000D893120010B50248FFF777FF10BDC046D893120010B50248FFF76CFF10BDC046C8
:200DA000D893120010B50248FFF76AFF10BDC046D89312000C234B43426830B59D5858233C
:200DC0004B43C4680648E318DA69854202D91043D86130BD120B12032A43DA61F9E7C046F2
:200DE000FF0F000070B50400EFF3108672B6437A002B12D1BA22C36892009A58002A0CD1BF
:200E0000C22292009B58002B07D1064D0121EB6898476B69032120009847002E00D162B6B1
:200E200070BDC04688931200EFF3108372B601228A40110002788A430270002B00D162B6EA
:200E40007047000070B504000126174D6B689847EB682000002198472B682000022198474D
:200E60002B68200000219847E6233100E2689B00D650237AFC2099400B00013BDBB21902F9
:200E8000800101403F2003400B43CC21890053502039535020006B6900219847EB68310013
:200EA00020009847002070BD88931200F0B506000D000024012085B00392337AA34202D886
:200EC000052005B0F0BD0300A34002936B461B7AEFF3108172B6777A3A001A407DD13B43DE
:200EE0007372002905D162B6002A02D00134E4B2E3E7FF2CE4D00C2363437268384FD31865
:200F00002A6800215A606A6830009A602A691A60FB6898477B6902213000984721003000B2
:200F2000FFF748FF7023697D0B40202B4DD0102B4FD0002B01D100930193AA8A0B07D205AD
:200F4000520F5B0FF068DB02AE7D92031A432B7DF60932435E079B06760E5B0F32435B0094
:200F60001343C0220904920311400B435821019A614352021343009A0026D2011343421853
:200F80009361AB7D16645B061B0FDF026B695B031B0FDB013B4302273B435364AB680B50CD
:200FA000EB6802999360FC22029B92011B0213403F220A401343E822920083500398B04295
:200FC00000D17EE7047030007BE7002300930233B2E7022300930023AEE7002986D182E7F8
:200FE00088931200F0B5037A050085B00E0001208B4246D90700EB688F400093E823009AEC
:201000009B00D2587B427B411A423CD158237343009AD3189A69024237D10C2272430192AE
:20102000FC223902920111403F223A40114302910393B022009B92009B581F42F9D0CE230E
:20104000009A9B00D750039B019ADC696B6824059B181A68240D141B1C6009D03100280077
:20106000FFF7A8FEE823009A02999B00D150E0E7280031000930FFF7D7FE2800FFF7B2FEE6
:20108000200005B0F0BD0320FBE70420F9E7000000487047FF0F000010B50248FFF7D2FEE3
:2010A00010BDC046F093120010B50A0001000248FFF7FCFE10BDC046F093120010B5010090
:2010C0000148FFF78FFF10BDF093120089000A507047002389000B5070470200EFF3108114
:2010E00072B603780020834201D101301070002900D162B67047EFF3108272B60378002BDA
:2011000001D000210170002A00D162B6180070470078704707B56B46D81D0623012103703B
:20112000FFF7EEFD0EBD73B56B46DD1D052301242B706B469E1D3200230021002800FFF748
:20114000FFFD3378234201D00028F2D076BDF8B504000D0017001E00FFF7DCFF002809D1CF
:201160003B00320029002000FFF7DEFD002801D1FFF7D9FFF8BD7FB56B46DD1D0C0016006A
:201180002870FFF7C7FF002809D1002E09D001212800FFF7B5FD002801D1FFF7C4FF04B099
:2011A00070BD2B7803A80370230C4370230A8370C4700421EDE710B51202FFF7CDFD10BDAC
:2011C00010B5FFF7BDFD10BDF7B56B4600AF06000D0014007B60FFF79DFF002814D12300FD
:2011E0006A460833DB08DB00D31A9D4629001E70581C2200D8F678FC611C6846FFF78AFD3F
:20120000002801D1FFF78FFF7B689D46BD46FEBDF0B5032587B006000F001400154017D063
:201220000200012105A8FFF7B8F9002803D00025280007B0F0BD04235D1BBD4200D93D00D6
:2012400020002A0005A9D8F64FFC641976197F1BFFF71EFFBB0803900193019B002B10D132
:2012600003331F40019DE3D03200012105A8FFF794F9051EDBD13A0005A92000D8F634FC2F
:20128000D6E7039B019A0293934200D902926B46320019892000FFF780F9051EC8D1029B14
:2012A000029A9B00F618E418019B9B1AD4E7F7B5FF23050007000C0000929D43A84212D0BD
:2012C0002D1A6E1CFF368E4200D90E00009B320039000220FFF70EF900281AD1009BBD19A8
:2012E0009B190093A41B80272E00230A9BB21B025B1901937F00009B019A5B1B9B199642BD
:2013000008D10020E2B2824203D031000230FFF7F1F8FEBD3A0031000220FFF7EBF800281E
:20132000F7D10136FF36E6E710B50400042907D8080000F023F803030A0D10000022202332
:2013400021001800FFF7F1F810BD00225223F7E70022D823F4E701226023F1E707B50300FE
:2013600068460730037093B20A000121FFF7FAF80EBD10B5FFF72CF910BD000002B47146D7
:2013800049084900095C49008E4402BC7047C046F8B5C046F8B5C046898312007D83120022
:2013A000000000006D83120000000000C1831200000000001384120000000000FF83120098
:2013C00021841200FD831200998412007D841200000012000300000003000000000000006A
:2013E0000000000000000000E987120000000000000000000000000000003020000000001B
:1E140000358E1200149912000600000000001220000000000C9412000804000023CA57
:2030000098851000D51281003D6E8000212610000000000000000000000000000000000099
:2030200000000000000000000000000029221000000000000000000037011000051E1000BA
:20304000E16F8000A91F1000F1221000031E1000696E8000596E8000496E80003D6E800074
:203060002D6F80003D6F80004D6F8000C16F8000D16F8000BD6E8000CD6E8000AD6E80005B
:20308000856F8000216F80003D6E800046000000A1E7800085C8800065C78000EDC6800087
:2030A000A5C8800051E88000D1E78000DDE78000CDE78000E9E780001DE88000DDA58000E3
:2030C00029A5800011A580004F23100079231000392310006323100085FC8000E8A11200A0
:2030E0000D3A10001B3A10001DC08000F92710000000000000000000000000000000000087
:20310000084B19680868203080F30988022080F31488BFF36F8F3FBCAE4608BC04BC62B6AB
:2031200018470000BCDA1200EFF3108072B6704780F310887047EFF309800E4B1A682038D7
:203140001060F0C044464D4656465F46F0C008B572B600F065FF62B60CBC116808681030FF
:20316000F0C8A046A946B246BB4680F309882038F0C81847BCDA1200F8B507460A48154607
:2031800000780E46002801D100F0FEF8EFF31084012080F310882A463146384600F006F88E
:2031A000E1B281F31088F8BD60F2120070B50E4618214843134914464518E86A1835002840
:2031C00004D001280FD0022805D113E0284600F013F9A04201D2002411E02246314628469F
:2031E00000F035FA0BE0284600F006F9A042F4D20446F2E73146284600F0F9F90446204626
:2032000070BD000060F21200F7B598B007A802904020039000200C460490189915460826B5
:20322000069105902178641C002970D0252907D002A800F0BDF905980028F3DA1BB0F0BD61
:203240000122002013460227217823291BD02B2916D02D2902D0302906D101E0184300E02B
:203260003843641C002AEFD1002122781346303B0A2B0AD20A23594389183039641CF4E7AB
:2032800004210843EDE73043EBE70023D7B22E2F0AD1641C22781746303F0A2F04D20A279B
:2032A0007B439B18303BF4E76C2A0DD0682A0BD0702A48D00BDC252A4FD0582A28D0632A69
:2032C0000CD0642A4DD10EE06278641CECE7732A2AD0752A13D0782A43D119E02868011DD5
:2032E000296001783AE02A68171D2F601768009101900A22394602A800F089F831E02A6853
:20330000171D2F6017680A220091019007E02AE02A68171D2F601768102200910190394685
:2033200002A800F0D9F81CE02868011D2960076839787F1C002914D002A800F039F90598BE
:203340000028F5DA0DE028680823011D296001680020102200960190E2E7252102A800F09C
:2033600027F9641C67E7002800DC67E70498002804D0024607A91898FFF7FEFE04990598A1
:20338000401805905AE7000010B5124C03202061606111A0A0611348E06101208002002165
:2033A000A16220620CA2226601206162E0620E4A626610222167A266E16660670BA1E01D93
:2033C00001F7BBFB0AA1204601F7B7FB2020A07110BD000060F212005465726D696E616CC6
:2033E00000000000C89D1200C8A112005254540053454747455200000269C1688A4203D8E9
:203400008068401A801800E0501A401E7047FFB583B00E4670420D9F0C9C0090002900DB9E
:203420000846012502E001F701FB6D1C05998842F9DA0698A84200D90546002C04D0002EA4
:2034400001DB780700D5641EB80702D50698002810D0F8070ED1002C0CD0A5420AD2202194
:20346000641E039800F0A4F80398C0680028F2DA07B0F0BD0398C0680028F9DB002E02DABF
:203480002D21009E02E0780707D52B21039800F08FF80398C0680028EADBB807800F02287D
:2034A00010D1069800280DD1002C0BD0A54209D23021641E039800F07BF80398C068002802
:2034C000F2DAD5E7019700943146069B059A039800F002F8CCE70000FFB581B001261F46D8
:2034E00035460A9C029802E001F78AFA6D1C03998842F9D2AF4200D93D460B98C00718D159
:20350000002C16D00B98800701D5002F02D0202000900CE03020FBE7641E0099019800F006
:2035200047F80198C06800283DDB002C01D0A542F2D30198C068002835DB012F01D97F1E02
:2035400006E03146029801F75BFA0399884202D303984643F1E7154F3146029801F750FA39
:203560000146029A7143511A0291395C019800F01FF80198C068002805DB3046039901F7AE
:203580003FFA0600E8D10B98C0070CD0002C0AD0A54208D22021641E019800F009F8019840
:2035A000C0680028F2DA05B0F0BD00001E38100010B5044680686368421C934205D32368CF
:2035C0001954A260E068401CE060A2686068824209D121682069FFF7CFFDA168884203D0AE
:2035E0000020C043E06010BD0020A06010BDF7B5054682B000200090EC6817462869A042B1
:2036000001D9061B02E0A968201A0E1AA868761E001BB04200D80646BE4200D33E4668685E
:2036200032460019039901F757FA0098BF1B801900900398A41980190390A868A04200D132
:203640000024EC60002FD9D1009805B0F0BDF7B50446C7688068E168C51B60681646401875
:20366000B54205D9019901F737FAB819E060FEBD2A46019901F730FA0198761B41193246BE
:20368000606801F729FAE660FEBD00000A4901200968002901D0002070470749DC39CA69F8
:2036A000002AF8D1CA1DFD3212688968491E8A42F2D102207047000098DB12000FF39CF6AE
:2036C0000FF37CF2FEE70000F8B5134E0F46F56804463068001D00F093FA601C08D1002FD5
:2036E00006D03168F01DFD30091D00F0C2FAF8BD30682C1944603168AC4204D2B06B091D7B
:2037000000F09FFAF8BD706B091D00F09AFAB06A8442F7D2B462F8BDBCDA1200F8B50546D2
:2037200000F0B4FA294EB068401CB060306837463C37002803D07069002826D02BE03560D6
:20374000B068012827D1002414206043C01900F06AFA641C062CF7D31C48B43000F063FAF7
:203760001A48C83000F05FFA1848DC3000F05BFA1648F03000F057FA154800F054FA14483F
:20378000503870631430B06305E03068E96AC06A884200D83560706A401C7062E86A316952
:2037A000884200D9306114214843C019291D00F060FA00F077FA7069002806D03068E96A89
:2037C000C06A884201D200F0A1FAF8BDBCDA1200C0DB120010B5026C0C46002A0CD0C168D9
:2037E0008B18C36041688B4201D2194601E00168C160204601F770F910BDF8B5856B174662
:2038000004460026026C002A11D0002F19D0E06801F762F9E168206C091AE1602268914276
:2038200002D26168081AE060022F17D019E02068002816D1606801F047F9064600206060BC
:203840000FE0A06801F748F9216CA0684018A0606168884205D32068A06002E0002D00D079
:203860006D1E6D1CA5633046F8BD000010B504464030407C002808D0012809D002280AD0C0
:20388000054A06A10BA001F034FE206B10F38AF3204610F387F310BD880E00002E2E5C2E2D
:2038A0002E5C2E2E5C2E2E5C7372635C7461736B732E630070785443422D3E756353746187
:2038C000746963616C6C79416C6C6F6361746564203D3D202820282075696E74385F742038
:2038E00029203220290000000B4900200A69002A00D001200A68D26A002A01D00020704782
:20390000054A3C321268012AF8D80028F6D1886AC968401A70470000BCDA12001B4D1B4ED9
:20392000F03611E000F0B2F9F068C468201D00F067F9A868401EA8606868401E686000F068
:20394000B1F92046FFF792FF68680028EAD10F483C300068012801D900F0D8F9FFF7C4FF75
:203960000228DCD300F054FBA86AE968884204D2074A08A10DA001F0BCFDFFF7B5FF022807
:2039800001D301F043FA01F083F9C8E7BCDA1200EE0C00002E2E5C2E2E5C2E2E5C2E2E5C87
:2039A0007372635C7461736B732E6300784E6578745461736B556E626C6F636B54696D65A5
:2039C000203E3D20785469636B436F756E74000010B5002807D00021416001600B460A4698
:2039E000C16000F085FC10BD10B503460298002906D00260C3630164012100F02FFC10BDCA
:203A00000060F7E7FFB581B00E4691000C9C0F460A9DA522206B01F771F8206B3F1FC01985
:203A2000C708FF00780704D01A4A1BA1204801F060FD2218315C20321175315C002902D068
:203A4000401C1028F5D32046403000260090C670062D00D30525E562A664201D656400F0D1
:203A6000EDF82046183000F0E9F824610620401B6462A061E664009806743846049A019903
:203A800000F0AEF820600B98002800D0046005B0F0BD0000630300002E2E5C2E2E5C2E2E7D
:203AA0005C2E2E5C7372635C7461736B732E63008838100010B5044600F0E8F8A06B0028B5
:203AC00004D0002400F0EEF8204610BD0124F9E70648416B0968002905D0416BC968C96869
:203AE0004968816270470021C943FAE7BCDA120005480068401C04D0752204A10FA001F004
:203B0000F8FC72B6FEE70000803A10002E2E5C2E2E5C2E2E5C2E2E5C7372635C706F727491
:203B200061626C655C41524D43435C61726D5F636D305C706F72742E6300000075784372E0
:203B400069746963616C4E657374696E67203D3D207E30554C000000F8B5044600F096F899
:203B60002646403605257557274624370BE0606A00280AD0384601F03FF8002801D000F05F
:203B8000FBF86D1E6DB2002DF1DC0027FF43777100F088F800F07AF80425755720461030D0
:203BA00000900BE0206900280AD0009801F024F8002801D000F0E0F86D1E6DB2002DF1DCF5
:203BC000377100F06FF8F8BD04490868002803D00868826C521C826408687047BCDA1200F8
:203BE00010B50124031F24061C601B1F1960191F024B0B60143940380A6010BDF10A100069
:203C00004368826801699A60836842685A604A68824201D182684A60002202610868401E2D
:203C20000860086870470146083100224160D243C16082600161002101607047002101617C
:203C4000704730B50C68621C02D00246083202E0026904E01A4653681D68A542FAD953683C
:203C60004B6099608A60516008610168491C016030BD42684A6093688B60936859609160A1
:203C800008610168491C01607047000072B604480168491C0160BFF34F8FBFF36F8F70473B
:203CA000803A100010B507490868002804D0401E086000D162B610BDD62203A10EA001F002
:203CC00018FC0000803A10002E2E5C2E2E5C2E2E5C2E2E5C7372635C706F727461626C6529
:203CE0005C41524D43435C61726D5F636D305C706F72742E6300000075784372697469630A
:203D0000616C4E657374696E670000000120044900074860BFF34F8FBFF36F8F70470000EA
:203D200000ED00E070B515460E460446FFF7AEFF20464030042282560021521C00D101714F
:203D400005228256521C00D14171FFF7ABFFA06B002805D120462A463146243000F03AF807
:203D60002046FFF7F9FE70BD02490A6A0260C96841607047BCDA120001490120C861704726
:203D8000BCDA120010B50C46002809D0074909681831FFF756FF01212046FFF795FC10BD32
:203DA0005B22520102A108A001F0A3FBBCDA12002E2E5C2E2E5C2E2E5C2E2E5C7372635C2D
:203DC0007461736B732E630070784576656E744C6973740070B514460D4600280DD009497D
:203DE00009681831FFF745FF002C01D00025ED4321462846FFF768FC70BD034A03A109A087
:203E000001F077FBBCDA12008B0B00002E2E5C2E2E5C2E2E5C2E2E5C7372635C7461736BCA
:203E2000732E630070784576656E744C6973740070B50B46040036D0A26C002A11D0616C92
:203E4000994200D21946E06A88422CD0012A2AD1154D2A68944209D1144A15A11AA001F0BD
:203E600048FB124A12A11B3A1DA0F8E7E162A269002A02DB0622511AA1610B4E14225043F3
:203E80003C366169801981420DD1201DFFF7B8FEE06A2969884200D9286114214843801962
:203EA000211DFFF7E6FE70BDBCDA1200A50F00002E2E5C2E2E5C2E2E5C2E2E5C7372635CDD
:203EC0007461736B732E6300707854434220213D20707843757272656E7454434200000028
:203EE00070785443422D3E75784D75746578657348656C640000000030B587B00025039568
:203F000005AA04A903A8049510F316F00499039800950191029000230FA11148059A00F04C
:203F200001FD104C0028E06203D010F325F1012806D0401C0DD10C4A0CA112A001F0D9FA1F
:203F400072B60020C043A06201206061E56000F0BFF807B030BD000049444C450000000084
:203F60001D091000BCDA1200DC0700002E2E5C2E2E5C2E2E5C2E2E5C7372635C7461736B49
:203F8000732E63007852657475726E20213D2028202D31202900000010B50749CA688B6A5C
:203FA00012189A4204D9054A05A10BA001F0A1FACA681018C86010BDBCDA1200C909000029
:203FC0002E2E5C2E2E5C2E2E5C2E2E5C7372635C7461736B732E63002820785469636B4318
:203FE0006F756E74202B20785469636B73546F4A756D702029203C3D20784E6578745461ED
:20400000736B556E626C6F636B54696D650000000248016B491C016370470000BCDA120087
:2040200010B51F4C206B002802D00120E06110BD0020E06120681B49006B02688A4208D1D5
:2040400042688A4205D182688A4202D1C068884204D02168206834310FF394F720691049E0
:204060003C3102E0002815D0401E142242438A58002AF7D01422424351184A680B46526817
:2040800008334A609A4201D152684A60D1682160206110BDB522120103A109A001F029FAD6
:2040A000BCDA1200A5A5A5A52E2E5C2E2E5C2E2E5C2E2E5C7372635C7461736B732E630089
:2040C0007578546F705072696F7269747900000010B50948016AFF22120411430162016A84
:2040E0001202114301620FF305F5044900200860FFF706F8002010BD00ED00E0803A1000AC
:2041000010B5FFF711F8044600F06CFC002803D001200349000748602046FFF709F810BDF8
:2041200000ED00E038B50B46002200901146012000F006F80446FFF74BFC204638BD00007A
:20414000F8B5069D002806D0002B09D0002A11D0002917D109E0FF22333210A115A00FE02D
:20416000FF2237320DA11CA00AE0FF223B320BA11EA005E0002905D0FF223C3207A129A086
:2041800001F0B7F948241C46012640339E712B460094FFF729FC2046F8BD00002E2E5C2EE6
:2041A0002E5C2E2E5C2E2E5C7372635C71756575652E6300757851756575654C656E6774BF
:2041C00068203E2028205542617365547970655F7420292030000000707853746174696383
:2041E000517565756520213D203000002128202820707563517565756553746F7261676519
:2042000020213D2030202920262620282075784974656D53697A65203D3D20302029202920
:20422000000000002128202820707563517565756553746F72616765203D3D203020292058
:20424000262620282075784974656D53697A6520213D2030202920290000000070B50D46BB
:20426000040026D0FFF712FD216CE06B48432168411861600021A1632168A160E06B216CB2
:20428000401E48432168224641180020C0434032E1601071507120461030002D0ED0FFF72C
:2042A000C2FC20462430FFF7BEFCFFF7FBFC012070BDFB2206A10CA001F01BF92169002973
:2042C000F3D000F099FC0028EFD0FFF71FFDECE72E2E5C2E2E5C2E2E5C2E2E5C7372635C46
:2042E00071756575652E63007078517565756500FFB5002583B01E460446002803D00498CA
:2043000000280CD103E0484A48A14EA01CE0206C002804D0B722920044A14C4814E0022EC0
:2043200007D1E06B012804D03F4A40A1921C48480AE000F041FB002808D10598002805D004
:204340001722520139A1434801F0D3F8FFF79EFCA06BE16B884207D3022E05D0059800285B
:2043600017D0002D18D01BE0324620460499FFF744FA616A002903D02046243000F03CFCEE
:20438000002801D0FFF7C2FCFFF78CFC012007B0F0BDFFF787FC22E06846FFF7E5FC012547
:2043A000FFF780FCFFF734FEFFF770FC2046403004214156491C00D1017105214156491CA5
:2043C00000D14171FFF76EFC05A9684600F05AFA002806D02046FFF7BFFB00F059FC0020E1
:2043E000D5E7FFF753FCA06BE16B884201D1012700E00027FFF756FC002F0ED0204610309F
:204400000599FFF7BFFC2046FFF7A6FB00F040FC00289BD1FFF77AFC98E72046FFF79CFBB2
:2044200000F036FC92E70000DB0200002E2E5C2E2E5C2E2E5C2E2E5C7372635C71756575C0
:20444000652E63007078517565756500C039100020391000CC381000FFB581B01E460400A6
:2044600003D0029800280CD103E0234A23A129A010E0206C002804D01F4A20A1521C27486E
:2044800008E0022E08D1E06B012805D01A4A1BA1921C234801F02DF8FEF746FE0090A06BBF
:2044A000E16B884208D3022E06D000240098FEF73FFE204605B0F0BD2046403005254557B3
:2044C0000746324620460299FFF797F9681C03D06D1C7D710124E9E7606A0028FAD02046AB
:2044E000243000F089FB0028F4D003980028F1D001210160EEE70000A10300002E2E5C2EA2
:204500002E5C2E2E5C2E2E5C7372635C71756575652E63007078517565756500C039100051
:204520002039100010B5002804D0806B002806D0002010BD034A04A109A000F0DAFF0120F6
:2045400010BD0000EA0800002E2E5C2E2E5C2E2E5C2E2E5C7372635C71756575652E630062
:204560007851756575650000F7B5002582B00446002803D0039800280CD103E0404A41A187
:2045800046A012E0206C002804D03D4A3DA1121D45480AE000F010FA002808D104980028F1
:2045A00005D0374A37A10932404800F0A2FF0026FFF76CFBA76B002F15D020460399FFF7D8
:2045C00009F97F1EA7632069002807D02046103000F012FB002801D0FFF798FBFFF762FB32
:2045E000012005B0F0BD0498002802D0002D03D006E0FFF757FB27E06846FFF7B5FB0125F3
:20460000FFF750FBFFF704FDFFF740FB2046403004214156491C00D1067105214156491CD0
:2046200000D14671FFF73EFB04A9684600F02AF9002820460AD0FFF78FFA00F029FB2046F4
:20464000FFF738FA0028B3D00020CAE7FFF732FA00280ED0204624300499FFF793FB20464D
:20466000FFF77AFA00F014FB0028A1D1FFF74EFB9EE72046FFF770FA00F00AFB98E7000039
:20468000DE0400002E2E5C2E2E5C2E2E5C2E2E5C7372635C71756575652E630028207078CE
:2046A000517565756520290070391000CC381000F3B5002583B004462E46002806D0206C97
:2046C000002808D0514A52A157A03AE0572212014FA15CA035E000F06FF9002807D10498BA
:2046E000002804D0494A4AA1521D594829E00027FFF7CCFAA06B002817D0401EA063206841
:20470000002802D1FFF760FA60602069002807D02046103000F070FA002801D0FFF7F6FA27
:20472000FFF7C0FA012005B0F0BD0498002802D0002D0BD00EE0002E05D0344A34A14D32E5
:2047400044A000F0D6FEFFF7ADFA5CE06846FFF70BFB0125FFF7A6FAFFF75AFCFFF796FAA0
:204760002046403004214156491C00D1077105214156491C00D14771FFF794FA04A968466F
:2047800000F080F80028204614D0FFF7E5F900F07FFA2046FFF78EF90028A9D0002E32D04E
:2047A000FFF774FA606A002828D0206B06210068091A24E0FFF77EF9002819D0206800283C
:2047C00007D1FFF763FA606800F0DCF90646FFF769FA204624300499FFF7D4FA2046FFF705
:2047E000BBF900F055FA002882D1FFF78FFA7FE72046FFF7B1F900F04BFA79E700216068E2
:20480000FFF716FB9FE700208DE70000740500002E2E5C2E2E5C2E2E5C2E2E5C7372635C7A
:2048200071756575652E6300707851756575652D3E75784974656D53697A65203D3D203069
:2048400000000000282070785175657565202900CC38100078496E6865726974616E6365E4
:204860004F63637572726564203D3D202820282042617365547970655F74202920302029E5
:2048800000000000F8B50C46050012D0002C14D0FFF7FCF9144EF1686B682068CA1A471CDA
:2048A00011D02F68366AB74212D08B4210D801240AE00E4A0EA114A003E00C4A0CA1521C32
:2048C00014A000F016FE0024FFF7ECF92046F8BD904205D9801A20602846FFF745FAF2E7C0
:2048E00000202060E3E70000BCDA1200260C00002E2E5C2E2E5C2E2E5C2E2E5C7372635CF0
:204900007461736B732E6300707854696D654F757400000070785469636B73546F57616967
:2049200074000000F0B585B007460B9D0C9C0A98002D15D0002C18D0542625630225512624
:204940003555002504AE00900196039502943846FFF758F82046FEF7E1FE049805B0F0BDA5
:204960002522120103A109A002E00D4A01A10DA000F0BFFD2E2E5C2E2E5C2E2E5C2E2E5C7C
:204980007372635C7461736B732E6300707578537461636B42756666657220213D20300041
:2049A0005102000070785461736B42756666657220213D203000000006484169002904D00C
:2049C000006B002803D00020704701207047022070470000BCDA12000148C0687047000019
:2049E000BCDA1200F8B52F4F0026386B002808D0B869401CB861F869002800D0012630468F
:204A0000F8BDFD686D1CFD6011D1786B0068002804D0254A25A12B4800F06BFD786BB96B66
:204A20007963B863386A401C3862FFF751F8B86A85420AD3786B0068002811D0786BC06883
:204A4000C468606885420ED2B86238681421C06A484314493C3108580128CCD90126CAE747
:204A60000020C043F0E7201DFFF7CAF8A06A002803D020461830FFF7C3F8E06A396988422D
:204A800000D938611421484306493C314018211DFFF7EFF8E06A3968C96A8842CAD3012609
:204AA000C8E70000BCDA1200330A00002E2E5C2E2E5C2E2E5C2E2E5C7372635C7461736B2B
:204AC000732E63003038100070B504460020002C28D0184D29688C4203D0174A17A11DA03A
:204AE00025E0A16C00291ED0491EA164636CE26A9A4217D0002915D1201DFFF781F8606CBC
:204B00000621E062081AA061E06A2969884200D928611421484307493C314018211DFFF7F8
:204B2000A8F8012070BD044A04A1521C0FA000F0E0FC0000BCDA12003B0F00002E2E5C2ED3
:204B40002E5C2E2E5C2E2E5C7372635C7461736B732E63007078544342203D3D207078435A
:204B6000757272656E7454434200000070785443422D3E75784D75746578657348656C643B
:204B80000000000070B504460020002C2BD0194DE16A2A68D26A914226D2A069002804DB05
:204BA00028680621C06A081AA061E06A114E142250433C3661698019814210D1201DFFF7D3
:204BC0001FF82868C06AE0622969884200D92861142148438019211DFFF74BF802E02868C2
:204BE000C06AE062012070BD616C2A68D26A9142F8D370BDBCDA120070B5C068C468002C48
:204C00000CD0204618300646FEF7FAFF144D286B002808D028463146DC3012E0114A12A1EB
:204C200017A000F066FC201DFEF7EAFFE06A2969884200D928611421484309493C31401871
:204C4000211DFFF716F8E06A2968C96A884202D90124EC6100E00024FEF73AFF204670BD28
:204C6000BCDA1200BB0B00002E2E5C2E2E5C2E2E5C2E2E5C7372635C7461736B732E63008B
:204C80007078556E626C6F636B65645443420000F8B52A4D0024286B2746002808D0FEF77F
:204CA000F5FF286B401E2863286B002806D041E02122920122A128A000F01BFCA868012633
:204CC00000281CD136E0C068C46820461830FEF797FF201DFEF794FFE06A2969884200D9D8
:204CE00028611421484315493C314018211DFEF7C0FFE06A2968C96A884200D3EE610F4805
:204D0000DC3001680029DED1002C01D0FEF7E0FEAC69002C08D0FFF765FE002800D0EE61BD
:204D2000641EF8D10020A861E869002802D00127FEF7ECFFFEF7B6FF3846F8BDBCDA120027
:204D40002E2E5C2E2E5C2E2E5C2E2E5C7372635C7461736B732E63007578536368656475CF
:204D60006C657253757370656E6465640000000008B50022134600926A46FFF76DFB002845
:204D800000D00120002806D00099002903D00121454A0907516008BD70B5444C2168A5680D
:204DA00041434E19E16808183221FFF629FE6268E16050438019A060A84201D2012070BDEE
:204DC000002070BD401A704770B5394EB0690120FFF7E2FF3068354DA968441A0BD435A279
:204DE0000021042000F070FB20462968FFF608FE401CFFF7D1FFA868801C7060FFF780F914
:204E000070BDE1E710B5FFF77BF910BDF8B50746FEF73CFF0EF3B8F20446FEF737FC002832
:204E200001D0072C05D0E00700D030BFFEF73AFFF8BD1E4D2E68A9688C1B012823D0601EBD
:204E40001B4E706007F308F700F077F930BF00F07FF93068001B0028E8DD32214843EA6899
:204E600069685143884207D9401AC40B2046FFF793F82046FFF790FF3068A9680A1A022A2F
:204E80000CDD71600CE0E8686968C01948433221FFF6B6FD7E4320183018D1E7801C706087
:204EA00007F3DAF6C2E7000000ED00E094DC1200000020206D697373696E67207469636B2B
:204EC000730A00001CB50A4C6068FFF72BFB00280DD000200090019069466068FFF748FF50
:204EE000002804D1292203A10AA000F002FB1CBDD4EC12002E2E5C2E2E5C2E2E5C2E2E5CA4
:204F00007574696C735C626C655F7461736B2E630000000073656E740000000018480721EC
:204F200081610121C905C1611649016205214161BFF34F8F7047124900204861704710B50C
:204F4000002000F084FE10BD10B500F097FE0C490020486110BD10B5FFF7E0FF00F0A5FE90
:204F600010BD10B5FFF7F7FF074801F0CDF901F0E2F9002000F06BFEFFF7E6FF10BD0000C0
:204F800080ED00E02D0002100AF31200184903204863704710B5032000F021F810BD10B50D
:204FA000002000F01CF810BD10B50120800200F047FD0AF32DF1002000F011F80D490120B9
:204FC00008700D49042008600C490968014205D0FF2209320AA118A000F08BFA10BD044A4A
:204FE0001168602380079943400E01431160704700102020943B100000E100E000E200E0E6
:205000002E2E5C2E2E5C2E2E5C2E2E5C2E2E5C2E2E5C706C665C61706F6C6C6F5F30305C00
:205020007372635C736C6565705C7379735F736C6565702E630000004E5649435F47657440
:2050400050656E64696E6749525128424C455F4D41435F4952516E293D3D30006B490A68C2
:2050600008688242FCD07047401A002801DD012070470020704700B5644A034611681846E7
:20508000FFF7F2FF0028F9D100BD70B508F3D0F25F4C0546E06910218843E0611A205D493C
:2050A000C0430860FFF772FFFFF774FFFFF753FF01F0ACFB00F01EFD002800D0012000F0C1
:2050C00082F8012000F08AF820680121C008C00008432060002000F07AFD681CFFF7CBFFFB
:2050E000E0690121090488430843E061002000F060F8A06840084000A06000F083FD464CE7
:20510000464DA168884321690843286000F07FFDA1688843E16808436860286800F06CFD46
:20512000686800F079FD00F0D3FC3949606840314861022000F052F870BDA6E710B501F04A
:20514000FAF801F05AFBFFF7FAFEFFF7FDFE10BD70B500F037FD012000F02BF8FFF77EFF7B
:205160000446012000F02FF82C4D286800F044FD686800F051FD2848254900684031486105
:2051800000F0A6FC224988680425A843886000F04FFCFFF7D3FF20460EF360F30EF362F412
:2051A0000EF36EF40EF390F41D480169A943016170BD174AD16901235B04C0079943800B71
:2051C0000143D1617047124AC032D168FF230133C0079943C00D0143D160704710B5114C07
:2051E000012809D0022806D1A06B0028FCD00120C00200F025FC10BD0120800200F020FC3D
:20520000206B0004C00FFBD010BD0000000020200010202080E100E0C03B1000E466100062
:2052200000ED00E00000102004207146084202D0EFF3098001E0EFF308800149084700002B
:205240005D6F800010B5002000F00CF800F012F8214901208861C86010BD20481E4900688F
:20526000C86070471C490A6B52005208C00702430A63704770B5184DAC6B1948844204D3FA
:2052800000221146012000F0B7FA204600F089F8144CA17A461814493046FFF6B1FB124954
:2052A00027224143711A1201511A89B2002300290CD0A372084A4032506011600B4908203F
:2052C0000860296B81430143296370BD11460122A272401CEEE7000000001020EC661000C0
:2052E000001BB70088F81200710200004010202010B50F48046918F791FE200702D5802082
:2053000000F00BF8E00502D5802000F006F8094904200860FFF7D6FD10BD054980310A686B
:20532000FF231B049A43000402430A60704700000000102080E200E0EFF3108172B6254B68
:205340005A8902435A81002900D162B6704710B50120FFF7F1FFFFF775FF1F490220087049
:2053600010BDEFF3108172B61A4B5A8982435A81002900D162B6704710B518490420086062
:20538000FFF704FEFFF706FE1248807AC00707D0FFF763FF03200CF77BFD0120FFF7E1FF3C
:2053A00010BD10B504460E48844204D300221146012000F021FA074A210250684018E10014
:2053C00009194018410A4B02C01A50601E204443601810BDD8A11200943B1000401020202D
:2053E00040420F00314600F021F8004770B504466834054661792835124B0026012904D047
:20540000022906D0032907D10DE00022EE87032101E0002204219847A07EF7210840A07644
:205420006671AE8670BD00220521F4E710B504460846FFF7DBFF002C01D0034810BD024885
:20544000E43010BD755F0100716F010010B50968814202D20B20002110BD0249FFF6D0FAC5
:2054600010BD000071020000EFF30881FFF7EEFF004A10477776010010B5014604467F3109
:2054800008781739012815D1887EC00612D400200CF770FF02280DD108480069407A002846
:2054A00008D107490868FF2212049043012252041043086003492046884710BD6CF7120052
:2054C00080001020E96201000FB438B507A80C4600906A4600200699FDF796FE002C04D098
:2054E000002257A11046FDF78FFE38BC08BC04B018471CB572B60B460092019051A200216F
:205500000420FFF7E1FFFEE73EB50093044602920191034655A200210420FFF7D5FF012C3A
:2055200001D172B6FEE73EBDFEB55B485BA2066845688468C1680291016901914169009144
:20554000876900210420FFF7BFFF62A200210420FFF7BAFF62A200210420029BFFF7B4FFDB
:2055600063A200210420019BFFF7AEFF64A200210420009BFFF7A8FF3B4665A20021042052
:20558000FFF7A2FF234666A200210420FFF79CFF334667A200210420FFF796FF2B4668A260
:2055A00000210420FFF790FFE41C36D0344668A200210420FFF788FF6AA2002104202368F9
:2055C000FFF782FF6BA2002104206368FFF77CFF6CA200210420A368FFF776FF6DA20021CD
:2055E0000420E368FFF770FF6EA2002104202369FFF76AFF6FA2002104206369FFF764FF1C
:2056000070A200210420A369FFF75EFF71A200210420E369FFF758FFFEBD2C4671A2C7E7F5
:2056200010B5EFF308814A681B48083100F0EAF8FFF77AFF002041780029FCD110BD00000F
:205640000A000000417373657274696F6E204661696C65643A2066696C652025732C206CB9
:20566000696E652025642C2025730A006C766C3A25782C6C723D3078253038782C706172CF
:20568000616D303D307825782C706172616D313D307825780A00000040F2120021212121C8
:2056A000212121212121486172644661756C742048616E646C657220697320747269676792
:2056C00065726564212121212121212121210D0A0000000050726F6C6F673A0D0A00000005
:2056E00052342020203D203078253038780D0A0052352020203D203078253038780D0A009B
:2057000052362020203D203078253038780D0A0052372020203D203078253038780D0A0076
:205720006C722020203D203078253038780D0A006D737020203D203078253038780D0A0059
:2057400070737020203D203078253038780D0A004D535020537461636B20496E666F3A0D9C
:205760000A00000052302020203D203078253038780D0A0052312020203D203078253038A7
:20578000780D0A0052322020203D203078253038780D0A0052332020203D203078253038FE
:2057A000780D0A0052313220203D203078253038780D0A004C522020203D203078253038B4
:2057C000780D0A0050432020203D203078253038780D0A0078505352203D20307825303807
:2057E000780D0A0050535020537461636B20496E666F3A0D0A00000000B57346FFF784FE2E
:2058000000BD00000160EFF3098343608260C460056146618761704710B5002903D0802046
:2058200000F02CF910BD4020FAE710B500290DD0012911D00D48022913D0032913D00B46AC
:205840000BA200210420FFF73FFE10BD024600210D480CF301F510BD00210B480CF3FFF470
:2058600010BD012100E00021017010BD38741000756E6578706563746564207379735F73B8
:205880007461743A25640A002074100010B50120400300F027F910BD10B5002904D0012065
:2058A000C00200F0EBF810BD01208002F9E710B51300FFF66CF906040A0D1016191E032030
:2058C00000F02EF80C21192010E00D211A200DE00D211B200AE00F2000F022F80D211C2011
:2058E00004E005211D2001E01C21182000F038F910BD36220F4910A0FFF7FBFD10B50029E1
:205900000BD0012909D0022907D0032905D00B460AA200210420FFF7D7FD10BD40207047B6
:205920000D490A6A000712091201000F02430A6270470000341C810030000000756E657830
:205940007065637465642073797320737461743A2025640A000000000020132010B5002949
:2059600004D00120400200F089F810BDFF200130F9E704480268C90752085200C90F0A432B
:205980000260704740201320F8B51C4615460E460746FFF7E0FA23462A463146384600F0C2
:2059A000BEFE0446FFF7D0FA2046F8BD70B514460D460646FFF7CFFA22462946304600F0EC
:2059C000C2FE0446FFF7C0FA204670BDF8B51C4615460E460746FFF7BEFA23462A46314671
:2059E000384600F0D4FE0446FFF7AEFA2046F8BD70B514460D460646FFF7ADFA22462946D2
:205A0000304600F0BFFE0446FFF79EFA204670BD70B514460D460646FFF79DFA2246294676
:205A2000304600F0C0FE0446FFF78EFA204670BD22492148086148612149086148617047CE
:205A400010B5EFF3108472B61E4948601A4A104203D04A680242FCD107E0174AD2431042D9
:205A600007D04A6803469343FBD1002C00D162B610BD1E22144915A0FFF73BFD10B5EFF3A9
:205A8000108472B60D4948610B4A104203D04A690242FCD107E0084AD243104207D04A69E3
:205AA00003469343FBD1002C00D162B610BD6B22054906A0FFF71DFDAAAAAAAA002013208D
:205AC0000090142000102020881D8100300000000349002048620320C00208627047000040
:205AE000002013200249886140088861704700000020132020480078704730B5EFF31084F2
:205B000072B6CD071D4A136801D0034300E0834313601A4B8D075B6801D5034300E08343F9
:205B20005360164B4D079B6801D5034300E083439360124B0D07DB6801D5034300E08343CF
:205B4000D360CB060D49096901D5014300E0814311610B4910684861002C00D162B630BDD2
:205B6000024601209040C8E70548002101620321C16141617047000078741000C03B1000C6
:205B80004010202070B51B4C256B0126B605DB07B5435B0A1D432563236B7500D207AB4386
:205BA000120A13432363226B03231B0789079A4389080A432263216B8900890880070143D7
:205BC000216370BD00231A4619461846DAE709490A6B01239B04C0079A43C00F83041A4332
:205BE0000A630A6B01235B049A43400402430A63704700004010202010B50146094800F0D9
:205C00004CFD10BD10B5074800F044FD10BD10B5044800F03CFD10BD10B50146014800F010
:205C20002DFD10BDD43B1000264A00239361106151610120D061D0690028FCD17047214804
:205C400001218161C161C1690029FCD1704770B51D4A054601211268002090471B4A002157
:205C6000126808469047FFF7EAFF164C656000F0A0FBA0602720C005E06070BD70B5202016
:205C800000F08BFB06000ED1104A00211268084690470C4CE56800F087FB290A09020843EF
:205CA000E06001202060304670BD10B500F086FB040005D103490860044A012112689047DB
:205CC000204610BD00101220543A1000503A1000F8B5FF4F044679688847FA680021204639
:205CE000904701233D69617A00222046A847207A800902280BD101233D69617B0422204656
:205D0000A84701233D69217B03222046A84701233D69A17A1A462046A84701233D69E17AF5
:205D200002222046A847002505266019817BE8480123076932462046B8476D1C761CEDB2CA
:205D4000F6B2002DF1D02169002088602169A08848612069A17980300167DD4D0121EA6867
:205D6000204690476A690021204690470020F8BD70B50446143000F0B6FC002801D0022070
:205D800070BDD34D0121EA68204690476A69012120469047002070BD70B588B0044660304F
:205DA000049006980E46C008FF21C000F93188430721490240308843FF30FF30C9000230B9
:205DC000884301210392090340180F22D203C90090430843110188430121C90588430690C2
:205DE00005930025694601A800F038FC002801D05D2207E026616846007800F036FC002814
:205E000004D06022B3A1C2A0FFF773FBA06A4007FCD5A06AC007FCD1A560256108B070BDE2
:205E2000FFB583B01F460446FFF778FD0190204614302669009000F039FC002820D0A44DD9
:205E40000021EA68204690476A690221204690473046019900F045FA3B463046059A0499ED
:205E6000FFF79AFF6A69032120469047EA68012120469047009800F027FC002007B0F0BD7F
:205E80000220FBE7FFB581B01E4617460546FFF745FD864204D981228EA1A4A0FFF729FB00
:205EA000284614302C69009000F000FC00280FD087480021C268284690478548022142691E
:205EC000284690479E4820600120A060002006E0022005B0F0BD395C2166401C80B2B042D0
:205EE000F9D302982061A06A4007FCD5A06AC007FCD1A0602061764C032162692846904784
:205F0000E268012128469047009800F0DDFB0020DFE7FFB583B01E460546FFF7FFFC019072
:205F200028461430009000F0C1FB00282AD0684F2C69FA680021284690477A6902212846C9
:205F400090472046019900F0CCF9059820663002000E20663004000E2066F0B22066204676
:205F60000D9B0C9A0499FFF717FF7A69032128469047FA68012128469047009800F0A4FBEE
:205F800000207BE7022079E7FFB589B0054614301F46139E079000F089FB002817D04C48BD
:205FA0002C69C2680021284690474948022142692846904763482060701E606007206065B3
:205FC0000020E0640121E164A160014607E002200DB0F0BD0B9A525C2266491CC9B2B94285
:205FE000F8D3214660310391129904910699FF22C908C900F93291430722520280319143AF
:206000000122920289180722120391430122520389180F23DB030596920099431143064644
:20602000084619018843110288430690694601A800F014FB010001D0D72208E00A9820618C
:206040006846007800F011FB002804D0DA2221A12FA0FFF74EFAA66026611D4C0321626972
:2060600028469047E268012128469047079800F02BFB0020ACE7FFB5054689B014301E46E2
:20608000079000F013FB00287ED0114C0221626928469047E268002128469047287A2C697E
:2060A000810772D08109022970D08106090F091F09078007490C800F0143112040010143E5
:2060C000274680377967287A1F49800940053DE0383A10002E2E5C2E2E5C2E2E5C2E2E5C65
:2060E0002E2E5C2E2E5C706C665C7065726970686572616C5C7373695C6170705F7173706B
:20610000695C6170705F717370692E63000000006572726F72203D3D205045524950485FC1
:206120004E4F5F4552524F52000000006C656E6774683C3D6669666F5F64657074680000C6
:20614000000107000003070000021F0040182060701E60600020E0640120A060E87920667A
:20616000129820662846FFF7D9FB86424DD9072060650120E0642046EC3003900B9804902C
:2061800006980596C00802E026E027E02AE0C0003821801C8843C90010308843C900803038
:2061A00088430121890240180721090388430121490340180F22D2038900904308431F215D
:2061C000C90488430690694601A800F047FA00280CD0FF22183213E00220F9E68106090F06
:2061E000083965E78106090F891E61E70A9820616846007800F039FA002817D0FF221B329B
:206200003D4908463C30FFF774F90A982061A06A4007FCD5A06AC007FCD105E0FA6E830028
:206220000B99401CCA50C0B2B042F7D30020A0602061324C0121E268284690476269032157
:2062400028469047079800F03FFA0020C0E670B5044615460E46143000F028FA00281FD0E0
:2062600026480021C26820469047207A23698106090F8007C902800F01434320C0000143D7
:20628000F420C150207A1E498009400540181860A808401E58601E6101209860002070BD8F
:2062A000022070BD006960307047C079704770B504461430054600F016FA00280FD0216960
:2062C000886AC007FCD1886008610C480121C26820469047284600F0F7F9002070BD03204C
:2062E00070BD084A0260091F01650021C1640221C164012181607047D4301000383A100051
:2063000000021F00000107002F4902228A8001228A710A460378D371407810721920487254
:206320001A2088721B20C8721C2008731D20487318208873704710B52348FFF7C9FC10BD63
:2063400010B50B46024601211F48FFF769FD10BD10B50B46024601211B48FFF793FD10BDF7
:206360001CB5019300920B46024601211648FFF7D0FD1CBD1CB5019300920B4602460121BF
:206380001148FFF701FE1CBD08B500920B46024601210D48FFF76FFE08BD10B50246012120
:2063A0000948FFF754FF10BD10B50748FFF77DFF10BD10B50448FFF775FF10BD10B50248CC
:2063C000FFF775FF10BD0000043C100010B50C224A43436858249A58C0688F4B61430818D7
:2063E0009A4202D9C169194305E0C3691105090D1A0B12031143C16110BDF7B50D46017A2C
:20640000064600248C4616E00121A140CAB2EFF3108772B6437A134201D1012100E000211D
:20642000002901D013434372002F00D162B6002904D1641CE4B2A445E6D8FF24FF2C29D03D
:2064400020460C23584372682968031DD150014673686A6808315A507268296911506F4FFE
:206460000021FA68304690477A6902213046904721463046FFF7AAFF68694204510F0229DB
:206480000AD001290AD0510F0BD0722264A172A0FFF72FF80520FEBD022203E000220221EF
:2064A00001E000220021F3688604C705B60F7F0F3605BF033E4307057F0FFF023E435202C6
:2064C0001643C9010E434107490E0E438106490F49000E430002C00F582106436143C818C8
:2064E0008661002202646A6956025203360F120FF602D2011643B61C4664AA685A50E9689A
:2065000081600120A04081068006890E800C01430720C001181801620298002800D00470A4
:206520000020FEBD70B50446EFF3108572B6407A002815D10521E068C9014118896E0029F9
:206540000ED10321090240188068002808D1334E0121F26820469047726903212046904776
:20656000002D00D162B670BDFEB50746C568007A0E46B04201D80120FEBD0720C00128180E
:206580000290016A0124B44004D00020014203D00320FEBD0120F9E75820704340190190E7
:2065A0008069C00701D00420FEBD0520C001281800900098006C2042FBD00320000228182F
:2065C00084630C227968019872438B58C0690005000D181A88503146384609D0FFF7F6FE97
:2065E000A006800EA106890C084302990862E0E700F005F83846FFF795FF0020FEBD012221
:206600008A40EFF3108172B6437A93434372002900D162B670470000FF0F0000203A10008C
:206620002E2E5C2E2E5C2E2E5C2E2E5C2E2E5C2E2E5C706C665C7065726970686572616C40
:206640005C6170705F646D61635C6170705F646D61632E6300000000300000000A4610B542
:2066600001460548FFF7C9FE10BD10B501460248FFF77AFF10BD00001C3C1000EFF310828E
:2066800072B6C0684160002A00D162B67047C06840687047C06800687047EFF3108272B6D5
:2066A000C0680160002A00D162B6704702460020EFF3108172B61378002B01D1012010705B
:2066C000002900D162B6704702460020EFF3108172B61378012B02D100201070012000297A
:2066E00000D162B67047007870471CB5044605206946087101236A46194601A8FFF73AFE59
:2067000069460978C90702D00028F3D01CBD0028FCD1002CFAD06946097821701CBDF8B5B1
:206720001C4615460E46074600F05EF8002809D12B46224631463846FFF712FE002801D1E5
:20674000FFF7D3FFF8BD37B582B015460C4600F04BF8002814D1002D02D0012102A809E0FD
:206760006946087A0870200C4870200A8870CC7004216846FFF7E4FD002801D1FFF7B5FFE0
:2067800005B030BD10B51202FFF7FEFD10BD10B5FFF7F0FD10BD10B5FFF7D2FD10BD10B52F
:2067A000FFF7D6FD10BDF7B51546074600F01CF8040012D1681C08F39FF4077006462A46BF
:2067C000401C0199FEF688F9691C3046FFF7E7FF040004D0304607F31FF62046FEBD0020D9
:2067E000FFF783FF0446F5E708B506206946087001216846FFF7A4FD08BD08B5AB2069468E
:20680000087001216846FFF7CAFF08BD08B5B9206946087001216846FFF7C1FF08BD303143
:206820003233343536373839414243444546000028202820282042617365547970655F744F
:2068400020292028202820707844656C617965645461736B4C69737420292D3E75784E750C
:206860006D6265724F664974656D73203D3D2028205542617365547970655F7420292030DB
:20688000202920292029000028202820282075696E7433325F742029207078546F704F6614
:2068A000537461636B202620282075696E7433325F742029202820307830303037202920B3
:2068C00029203D3D2030554C202900002128202820785461736B4765745363686564756C17
:2068E000657253746174652829203D3D202820282042617365547970655F7420292030207C
:20690000292029202626202820785469636B73546F5761697420213D203020292029000003
:20692000212820282078436F7079506F736974696F6E203D3D2028202820426173655479AC
:2069400070655F742029203220292029202626202820707851756575652D3E75784C656E2A
:2069600067746820213D20312029202900000000212820282028207076427566666572201A
:2069800029203D3D2030202920262620282028207078517565756520292D3E7578497465CF
:2069A0006D53697A6520213D2028205542617365547970655F742029203055202920290024
:2069C000212820282070764974656D546F5175657565203D3D203020292026262028207052
:2069E0007851756575652D3E75784974656D53697A6520213D2028205542617365547970A5
:206A0000655F742029203055202920290005010A0114010A010F0B05010A01000301020359
:206A200031A3800075A380000000000019281000000000002B281000000000008D281000F1
:206A40000000000099281000AF281000FD2810005D2910007329100011223344000000005D
:206A6000E6128100FC128100E1718000157280000000070000000000981381000200000000
:206A8000AAAAAAAA000000000000000000000000000000000000000000000000000000004E
:206AA0000000000000000000000000000000000000000000000000000000000000000000D6
:206AC0000000000000000000000000000000000000000000000000000000000000000000B6
:206AE00000000000000000000000000000000000000000000000000000000000FFFFFF0099
:206B0000000000000000000000000000000000000000000000000000000000000000000075
:206B2000000000000000000000000000000000000000000000000000000000000000000055
:206B4000000000000000000000000000000000000000000000000000000000000000000035
:206B600000000000000000000000000000000000501481000B00000000080000000000001D
:206B8000D8148100050000000000000014158100050000000200000068681000D871100099
:206BA00010009700970000005DB98000A1B980000000000045B9800000000000ADB98000C3
:206BC0000300000003000000000000000000000000000000ED7680000000000000000000CC
:206BE0000080142000000000A57780000040132000000000000000000000000000000000D2
:206C000000000000D12C10000000000000000000000000000000302000000000057580001D
:206C200098731000060000000000122000000000AB087A0857082508FE07DC07C007620728
:206C40002907290729072907BD0685066D0660062506F505D905AD058B0566054805190532
:206C6000F404D404AF0484046D0445041904FD03DD03BF0395037603520333030A03EF02F6
:206C8000C402A6028C02650247022A020802E201C601A601850169014A012E011801F1004D
:206CA000CB00B0009100710056002E0020000000D0976500EC3F650060EA6400A89364000A
:206CC0006842640004F763008CA663003C2E6300F8CC6200249C6200506B62007C3A620069
:206CE0005CBA61002C5E6100341A61009CDF60004C806000882B60009CE55F00F8935F009F
:206D0000A0465F0058075F00B0BE5E0024695E00681B5E00B0DD5D004C925D00A8405D006E
:206D2000CC085D001CB95C0014675C007C2C5C0070E35B00ACA75B00A4555B00E0195B0012
:206D400018CE5A00988F5A004C405A0044075A0004B65900787959003841590018F3580055
:206D600028B658002C7B5800C82F580054EF570058B4570030785700302D5700FCF256009B
:206D8000A8B55600D87B560034435600B404560068B55500FC7B5500384055004803550011
:206DA00078C954001C855400847C5400BC1754000000000033302D2A2724211E1B18150042
:206DC0000000000000000000000000000000000000000000000000000448854600F01CF898
:206DE00000480047BD061000C046C04698851000214605F0E3F80446004800474186010020
:206E000000B5044609F0F2FA00BD421C0178401C0029FBD1801A7047064C0125064E05E0A7
:206E2000E36807CC2B430C3C98471034B442F7D3FFF7D6FFE81E8100681F8100FEE700005C
:206E4000401E0028FCD1704710B50248006800F091FB10BDE073100010B50248006800F09E
:206E6000CBFC10BDE4731000F8B50E4EB06A00248506AD0E01273846A040284204D0F06274
:206E80000948A10040588047641CE4B2052CF2D3A80605D52020F0620348001F00688047E2
:206EA000F8BD0000001020208074100010B50248006800F03BFC10BDF473100010B50248D8
:206EC000006800F0C5FC10BD7873100010B50248406800F0BDFC10BD787310008307FF22FE
:206EE000DB0E9A408907090E994000280BDA0007000F0838830808489B001818C369934344
:206F00000B43C3617047830804489B001818036893430B430360704700ED00E000E400E06C
:206F200001480068004700004874100010B50248006800F059FD10BDEC73100010B5024885
:206F4000406800F051FD10BDEC73100010B50248006800F049FD10BDE873100070B50446BB
:206F600080692038807F052808D28000044D211D26680EC92D583046A847206070BD0000BF
:206F80003C15810070B50C4842680C490A6082694A600169406AC907C90F084DC407E40FD9
:206FA0000835002902D0286800F0D4FD002C02D0686800F0CFFD70BD00001320807310005B
:206FC00010B50248006800F0CFFD10BD9073100010B50248406800F0C7FD10BD9073100053
:206FE00010B505A200210420FBF46EF20648006800F03AFE10BD00005744545F4952514864
:20700000616E646C65720A00F873100002E008C8121F08C1002AFAD170477047002001E065
:2070200001C1121F002AFBD170477047704770477047704710B500290DD0012911D00E48F1
:20704000022913D0032913D00B460CA200210420FBF43AF210BD024604210F4808F0FCF837
:2070600010BD04210C4808F0FAF810BD012100E00021017110BD000038741000756E657835
:207080007065637465642073797320737461743A2025640A000000002074100010B506289C
:2070A00004D95F2202A10FA0FBF423F210BD00002E2E5C2E2E5C2E2E5C2E2E5C2E2E5C2E89
:2070C0002E5C706C665C7065726970686572616C5C6170705F6164635C6170705F61646314
:2070E0002E6300003000000010B506F0AFFD10BD70B50E480B2184681620A27D4243C0016D
:20710000163200F03BF8054616226168FAF7E4DCA27D162042432818A168FAF7DDDC002119
:20712000C943284605F05AFC70BD0000CC6610000FB470B5044606AD00260EE02A7A2878DE
:207140006968531C23706070A01C0C35FAF7C4DC2078641C0419761CF6B26846007D86429C
:20716000ECD3204670BC08BC04B0184710B501460148FEF7E3D810BD70E3120070B506463F
:20718000104615460C46083007F0CCFD00280BD00680448010218180C5800830044629463F
:2071A000FAF7B3DC204670BD332202A109A0FBF4A0F100002E2E5C2E2E5C2E2E5C2E2E5CBB
:2071C0007574696C735C626C655F7461736B2E63000000006D736720213D20300000000037
:2071E00010B5134602A201210320FBF46DF110BD492F6F736170702E6169725F73796E634D
:207200003A72656164206174745F6964783A256400000000F8B51546064604221048079F50
:20722000FFF7ACFF04460020A070E9B2304606F0DDFB20800021C943204605F0CFFB022D33
:2072400006D0042D03D13946069807F08DFEF8BD04A201210320FBF437F108F069FEF8BDE9
:20726000160C0000492F6F736170702E6169725F73796E633A6D617374657220656E61624F
:207280006C65206363636400F1B58EB00025282216496846FAF720DC012069468871082032
:2072A00088800020C871684600F022F808F02CFC00240AAF6600F21968460E9900F048F8C2
:2072C000002802D0641EE4B201E0B85B4519641CE4B2082CEED3684600F098F8E817400FC3
:2072E00040194003000C0FB0F0BD0000B0188100F8B5164E05467168046A88470123002279
:20730000376911462846B8473268022128469047B268002128469047F268002128469047C7
:2073200008F0F2FBA988204600F048F8A8790028206802D00121084301E0400840002060A8
:2073400072690021284690470020F8BD00188100F7B50546046A82B01C300F460090FCF4C6
:20736000A5F1002825D03846FFF798FE124E0221726928469047E0687907490C0722120352
:2073800090430143E160E06802210843E060E0688007FCD472690321284690470098FCF434
:2073A00093F1E06804998001800D0880002005B0F0BD0220FBE700000018810010B50446A0
:2073C0000E4848430E49FAF731DB0E4980B2884201D9084602E0002800D10120A1680A4BA3
:2073E0008205920919400A43A260A1688005800D890A89020843A06010BD00000024F4005A
:2074000040420F00FF030000FFFF00FC70B50B4E0446F268056A0121904732680121204633
:207420009047286840084000286008F06DFB7269012120469047002070BD00000018810055
:20744000F8B50122194B0021104603F0CDFF002804D0174A17A126A0FBF44BF0134E3078B4
:20746000C0430006000E01D0306816E0104F002501242A37E0B2FFF707FFB84201D2012010
:2074800000E00020611E88402843641CE4B2C5B2062CEFD31748405D306007F0E5FE16A29B
:2074A000002104203368FBF40FF0F8BD94741000790200002E2E5C2E2E5C2E2E5C2E2E5CD6
:2074C0002E2E5C2E2E5C706C665C7065726970686572616C5C6170705F6164635C617070B1
:2074E0005F6164635F7574696C732E630000000030000000B03D1000524F3D307825780A8A
:207500000000000070B5164D044669688847EA680021204690472A680221204690472A68C5
:207520000021204690470720E1680122C00108188261207A8240521E9006800E020210434F
:20754000032212028918086308616A69002120469047EA68012120469047002070BD00004E
:20756000203A100010B50248FFF7CCFF10BD00001C3C1000F8B50646C068032109024718ED
:20758000B968002917D0FF22173210A11DA0FAF4B0F700240BE0A96E0120A040014204D00F
:2075A000B8632146304602F0EAFE641CE4B2307AA04203D9EFE70521C9014518A86E00281A
:2075C000E7D13046FBF4AEF7F8BD00002E2E5C2E2E5C2E2E5C2E2E5C2E2E5C2E2E5C706C08
:2075E000665C7065726970686572616C5C6170705F646D61635C6170705F646D61632E63EA
:20760000000000007265672D3E7374617475735F6572725F6C203D3D20300000F7B50546C9
:20762000C4682C480F46026882B00121284690470126BE40697A38465822504331400190BD
:2076400000291FD00019016CFF220132114301640520C0012018806E304203D00320000209
:2076600020188663002000901A480221026828469047184800210268284690470098002815
:2076800002D024E00320EEE701980019016C8905FCD5B1060722890CD201A21811623C46A7
:2076A0000C22696854430A59C0690005000D101A085139462846FBF4A2F72846FBF432F718
:2076C0000498002803D06868015904980160009805B0F0BD203A10000A4610B501460248E2
:2076E000FFF79CFF10BD00001C3C100070B50E4E0546F268002190473268022128469047A4
:2077000032680021284690476C6804E02146284603F0CEFF2468002CF8D172690021284631
:207720009047002070BD00004818810070B50546012644680BE0E9680A6C207AC240D207DA
:2077400004D032468240CA64606880472468002CF1D170BD70B5054614460E461830FBF462
:20776000A5F7002809D00FCC08350FC528463146183804F091F8002070BD022070BD000032
:207780001FB50269C16801920091416902918169039101466A460248FFF7DCFF04B010BD0F
:2077A000E83B100070B50F4C054661688847E2680021284690472268022128469047226807
:2077C00000212846904768680021416001210161E26828469047626900212846904700204D
:2077E00070BD0000A83B100010B50248FFF7DAFF10BD0000E83B1000F8B5044661680120AA
:20780000C86107216068C901254641180835202227696669A068FAF75FD91D216068490162
:20782000411820226868FAF757D9084D0121EA68204690476A6903212046904720461830D4
:20784000FBF442F73046B847F8BD0000A83B1000FEB5C71D0646F937386D0290C46A0194D6
:20786000600604D5304604F065FA50208443600725D53146FF31213135468035386D0DE0AD
:2078800002692B6B1A702A6B521C2A630A7F002A13D0521E1206120E0A770ED0826FD20667
:2078A000EED1097F102901D9082100E0491ECAB2816B090A09021143816304208443E0066F
:2078C00004D5304604F0A2FA10208443A00606D5386D016B10221143016320208443200629
:2078E00001D5802084433546FF35A005413500281DDA717B3046002910D1396D096F490788
:2079000003D5A021095C012908D9697A012905D00FA200210420FAF4D7F505E0297A00291B
:20792000697A12D004F074F9012040028443002C06D000942B7D0CA200210420FAF4C4F51F
:207940000199029804F076F8FEBD04F02FFAEBE7696E76616C64206969632073746F70200E
:207960006269740A0000000069696325643A756E6578706563746564206972712C737461B1
:20798000743D307825780A0010B58902520211431A02029C11432143016110BDFEB5084C47
:2079A000089E30CC009401956C466080A180E2800448029332466946406804F0B3FCFEBDD8
:2079C000B814810068E3120008B5064B00201A46009048320C211420F9F4B2F301491039DF
:2079E000486008BD78E3120070B5064605462036E86A006B0406240E0CD0A00614D5337C88
:207A000024A200210420FAF45FF5E86A406CFF22E23234E0E86A8068002804D1254801210C
:207A2000C2682846904770BDE00602D5284608F009FE20070AD5337C1FA200210420FAF4D7
:207A400043F5E86AC06BFF22EC3218E060070AD5337C21A200210420FAF436F5E86A006C66
:207A6000FF22F2320BE0A0070DD5337C22A200210420FAF429F5E86A806BFF22F83226A13A
:207A800033A0FAF436F5E007B2D0284608F068FEAEE7000073706925642C6D756C74695FA5
:207AA0006D617374657220636F6E74656E74696F6E0A00003018810073706925642C52654E
:207AC0006365697665204649464F204F766572666C6F770A0000000073706925642C526520
:207AE0006365697665204649464F20556E646572666C6F770A00000073706925642C54728F
:207B0000616E736D6974204649464F204F766572666C6F770A0000002E2E5C2E2E5C2E2E4B
:207B20005C2E2E5C2E2E5C2E2E5C706C665C7065726970686572616C5C7373695C617070AF
:207B40005F7370695C6170705F7370692E63000030000000027D142301695A435118C9681A
:207B6000C268816810460847F8B50646806B354620350090009880680107090F012953D01C
:207B800002293AD0042923D0062908D00C291FD02B7F26A200210420FAF496F4EAE7B46B46
:207BA0006069C7B2B80709D526A200210420FAF48BF400E020686069C007FBD13807D9D5BB
:207BC00024A200210420FAF47FF40120E875D1E73046B26B0AE01168436A1970016A491E05
:207BE0000162436A5B1C4362002903D05169C907C0D0F0E709F06AF8BCE731693046002935
:207C00000FD0826B09E04169097811604169491C41610169491E0161ACD0D16F8907A9D565
:207C2000F1E709F0FDF8A5E7F8BD0000756172743A256420756E65787065637465642069E0
:207C400069640A0075617274206F76657272756E0A00000075617274206672616D696E6796
:207C6000206572726F720A0001694969C26881681046084710B50021428905E043685B5CE4
:207C8000002B05D0491C89B28A42F7D8002010BD00F002F810BD000010B54268535C002BBC
:207CA00004D01A2206A114A0FAF423F4012353548289521E8281026800894843101810BD98
:207CC0002E2E5C2E2E5C2E2E5C2E2E5C2E2E5C2E2E5C6D6F64756C65735C73746174696377
:207CE0005F6275666665725C7374617469635F6275666665722E63006275665F68646C2D5C
:207D00003E7265665F636E745B6964785D3D3D300000000010B542898A4204D8082207A193
:207D200014A0FAF4E6F34268525C002A04D0026800894843101810BD002010BD2E2E5C2E2C
:207D40002E5C2E2E5C2E2E5C2E2E5C2E2E5C6D6F64756C65735C7374617469635F62756640
:207D60006665725C7374617469635F6275666665722E63006275665F68646C2D3E627566FC
:207D80005F6C656E6774683E6964780070B50E460446002500F00FF800280AD0206821896C
:207DA000301AF9F743DE616880B2085C002800D00125284670BDF8B50668054607890C4608
:207DC000881B3946F9F732DE002906D1A64204D8688978438019A04201D80020F8BD0120C7
:207DE000F8BD000070B50D460446FFF7E4FF002806D020682189281AF9F718DE80B270BD7C
:207E0000142202A10FA0FAF474F300002E2E5C2E2E5C2E2E5C2E2E5C2E2E5C2E2E5C6D6F59
:207E200064756C65735C7374617469635F6275666665725C7374617469635F62756666651D
:207E4000722E630061727261795F6275665F68646C5F73616E6974795F636865636B2862EF
:207E600075665F68646C2C707472290070B50D460446FFF7A0FF002810D020682189281A12
:207E8000F9F7D4DD626880B2115C00290AD0491E0906090E11540AD0002070BD742206A17F
:207EA00013A002E0762204A11BA0FAF422F3A089401CA081012070BD2E2E5C2E2E5C2E2E72
:207EC0005C2E2E5C2E2E5C2E2E5C6D6F64756C65735C7374617469635F6275666665725C0C
:207EE0007374617469635F6275666665722E630061727261795F6275665F68646C5F73610B
:207F00006E6974795F636865636B286275665F68646C2C70747229006275665F68646C2D98
:207F20003E7265665F636E745B695D0004490A68C00752085200C00F02430A60704700009A
:207F40004000112004494A680005120B1203000D02434A60704700004000112010B5054943
:207F600000230A6848680B604B6019469047F9F4A9F710BD4CE3120010B5064A13681870BD
:207F8000C88808305081002051601081024808F059FC10BD5CE312005D7F800010B5054902
:207FA00000238A68C8688B60CB6019469047F9F489F710BD4CE3120008B5064B00201A4627
:207FC0000090483208210320F9F4BAF001490839486008BDDCEC1200FFB581B00C9F1C46F0
:207FE00015460E46880704D5002211460120FAF403F4280B04D0002211460120FAF4FCF36D
:20800000600804D0002211460120FAF4F5F30A98400804D0002211460120FAF4EDF30B98EB
:20802000400804D0002211460120FAF4E5F3780904D0002211460120FAF4DEF30D98000968
:2080400004D0002211460120FAF4D6F30198B107C007084329040843E10308430A99490302
:2080600008430B9909030843390108430D9908430149486305B0F0BD4000102004490A68BE
:20808000FF231B049A43000402430A60704700008000102010B5084C2078002805D106F4FF
:2080A000AFF6002801D000F009F82078022801D107F02CFE10BD0000943B100010B50BA25E
:2080C00000210420FAF400F201208002FAF4B8F40A4A1020116B814301431163084800E092
:2080E00030BF01780229FBD110BD0000736F66742077616B6575700A0000000000001020B1
:20810000943B10001CB50C48006807F075FD0025ED430A4CFFF7BEFF2A4669466068F9F458
:2081200023F20128F6D101980028F3D0014668460078FFF721FFEDE7DC661000D4EC12003B
:208140003EB5084C084A05216D4616C50346FF222D3206A10948F9F4E5F3034968390860F7
:208160003EBD0000ECF112003CED1200424C4520535441434B205441534B00000581800018
:2081800003490A68120A120202430A607047000080001020F0B518211A4F4143CE192036D3
:2081A000F17987B00A2907D0717AFF2908D0164A16A120A0FAF49DF100F08CF907B0F0BDFD
:2081C00001020546082224480E31FEF7D7FF04460A2020700722791D601CF9F77DDC012008
:2081E00069460875601C009005A801900D72F07948723A68072090470021C943204604F040
:20820000EDFBDBE7843A1000390400002E2E5C2E2E5C2E2E5C2E2E5C7574696C735C626F6B
:208220006E645C626F6E645F6D616E6167652E63000000006C5F626F6E642E6465765F6971
:208240006E666F5B636F6E6E5F6964785D2E69643D3D203078464600120E00001821484324
:20826000034910B540180349203000F0CDFE10BD843A10002D8F800070B50D46044603465C
:208280000FA201210320FAF41FF1002C0ED0082C0BD106211548F9F738DC2B7814A20121CD
:2082A0000320FAF411F105F0D1FC70BD0F48AB78001F037015A201210320FAF405F170BDA3
:2082C000492F6F736170702E6169725F73796E633A626F6E645F6D616E6167655F6576742A
:2082E0005F6362206576743A20256400DC3D1000492F6F736170702E6169725F73796E63BE
:208300003A646973636F6E6E3A256400492F6F736170702E6169725F73796E633A424F4E38
:20832000445F4D475F4556545F434F4E4E454354454420636F6E6E5F68646C3D256400009B
:20834000020701D503207047420701D502207047C007C00F0843FAD001207047F8B50746EF
:2083600018A200210420FAF4AFF00025002F26D07C1D22D0207805281FD2A0781F281CD893
:20838000A079052819D8E078C01F0A2815D207CF114E07C60C3E00F0FFFB00241820604321
:2083A0008019143001F03AFE641CE4B2042CF5D30948E830FEF7DAFE02E0032500E005255F
:2083C0002846F8BD626F6E645F6D616E6167655F696E69740A000000843A10001821074A9A
:2083E000414310B589182031C9790A2902D000F007F810BD00F0A2F910BD0000843A100019
:2084000070B5042803D3154A15A11FA01BE01821214A41438C182034617AFF2915D001025B
:208420001E221E480E31FEF7A9FE05460B202870607AAA1C012100F065FE002808D0074A47
:2084400017A1921F20A0FAF454F001F035F870BD0021C943284604F0C1FA70BD8B03000071
:208460002E2E5C2E2E5C2E2E5C2E2E5C7574696C735C626F6E645C626F6E645F6D616E61F1
:2084800067652E6300000000636F6E6E5F696E6465783C3400000000843A1000160E0000F8
:2084A0002E2E5C2E2E5C2E2E5C2E2E5C7574696C735C626F6E645C626F6E645F6D616E61B1
:2084C00067652E6300000000657272203D3D20300000000070B50102054686B022221448C3
:2084E0000E31FEF74BFE04460120124E20703179002900D1002060700722711DA01CF9F7AD
